{
  "_format": "hh-sol-artifact-1",
  "contractName": "RoleNFT",
  "sourceName": "contracts/NFT.sol",
  "abi": [
    {
      "inputs": [
        {
          "internalType": "string",
          "name": "name",
          "type": "string"
        },
        {
          "internalType": "string",
          "name": "symbol",
          "type": "string"
        }
      ],
      "stateMutability": "nonpayable",
      "type": "constructor"
    },
    {
      "anonymous": false,
      "inputs": [
        {
          "indexed": true,
          "internalType": "address",
          "name": "owner",
          "type": "address"
        },
        {
          "indexed": true,
          "internalType": "address",
          "name": "approved",
          "type": "address"
        },
        {
          "indexed": true,
          "internalType": "uint256",
          "name": "tokenId",
          "type": "uint256"
        }
      ],
      "name": "Approval",
      "type": "event"
    },
    {
      "anonymous": false,
      "inputs": [
        {
          "indexed": true,
          "internalType": "address",
          "name": "owner",
          "type": "address"
        },
        {
          "indexed": true,
          "internalType": "address",
          "name": "operator",
          "type": "address"
        },
        {
          "indexed": false,
          "internalType": "bool",
          "name": "approved",
          "type": "bool"
        }
      ],
      "name": "ApprovalForAll",
      "type": "event"
    },
    {
      "anonymous": false,
      "inputs": [
        {
          "indexed": true,
          "internalType": "address",
          "name": "previousOwner",
          "type": "address"
        },
        {
          "indexed": true,
          "internalType": "address",
          "name": "newOwner",
          "type": "address"
        }
      ],
      "name": "OwnershipTransferred",
      "type": "event"
    },
    {
      "anonymous": false,
      "inputs": [
        {
          "indexed": true,
          "internalType": "address",
          "name": "from",
          "type": "address"
        },
        {
          "indexed": true,
          "internalType": "address",
          "name": "to",
          "type": "address"
        },
        {
          "indexed": true,
          "internalType": "uint256",
          "name": "tokenId",
          "type": "uint256"
        }
      ],
      "name": "Transfer",
      "type": "event"
    },
    {
      "inputs": [
        {
          "internalType": "address",
          "name": "to",
          "type": "address"
        },
        {
          "internalType": "uint256",
          "name": "tokenId",
          "type": "uint256"
        }
      ],
      "name": "approve",
      "outputs": [],
      "stateMutability": "nonpayable",
      "type": "function"
    },
    {
      "inputs": [
        {
          "internalType": "address",
          "name": "owner",
          "type": "address"
        }
      ],
      "name": "balanceOf",
      "outputs": [
        {
          "internalType": "uint256",
          "name": "",
          "type": "uint256"
        }
      ],
      "stateMutability": "view",
      "type": "function"
    },
    {
      "inputs": [
        {
          "internalType": "uint256",
          "name": "tokenId",
          "type": "uint256"
        }
      ],
      "name": "getApproved",
      "outputs": [
        {
          "internalType": "address",
          "name": "",
          "type": "address"
        }
      ],
      "stateMutability": "view",
      "type": "function"
    },
    {
      "inputs": [
        {
          "internalType": "address",
          "name": "_address",
          "type": "address"
        }
      ],
      "name": "getIdentity",
      "outputs": [
        {
          "components": [
            {
              "internalType": "string",
              "name": "department",
              "type": "string"
            },
            {
              "internalType": "string",
              "name": "role",
              "type": "string"
            }
          ],
          "internalType": "struct Identity",
          "name": "",
          "type": "tuple"
        }
      ],
      "stateMutability": "view",
      "type": "function"
    },
    {
      "inputs": [],
      "name": "getTotalTokenCount",
      "outputs": [
        {
          "internalType": "uint256",
          "name": "",
          "type": "uint256"
        }
      ],
      "stateMutability": "view",
      "type": "function"
    },
    {
      "inputs": [
        {
          "internalType": "uint256",
          "name": "",
          "type": "uint256"
        }
      ],
      "name": "idOfIdentity",
      "outputs": [
        {
          "internalType": "string",
          "name": "department",
          "type": "string"
        },
        {
          "internalType": "string",
          "name": "role",
          "type": "string"
        }
      ],
      "stateMutability": "view",
      "type": "function"
    },
    {
      "inputs": [
        {
          "internalType": "address",
          "name": "owner",
          "type": "address"
        },
        {
          "internalType": "address",
          "name": "operator",
          "type": "address"
        }
      ],
      "name": "isApprovedForAll",
      "outputs": [
        {
          "internalType": "bool",
          "name": "",
          "type": "bool"
        }
      ],
      "stateMutability": "view",
      "type": "function"
    },
    {
      "inputs": [
        {
          "internalType": "address",
          "name": "to",
          "type": "address"
        },
        {
          "internalType": "string",
          "name": "_tokenURI",
          "type": "string"
        },
        {
          "internalType": "string",
          "name": "_department",
          "type": "string"
        },
        {
          "internalType": "string",
          "name": "_role",
          "type": "string"
        }
      ],
      "name": "mint",
      "outputs": [],
      "stateMutability": "nonpayable",
      "type": "function"
    },
    {
      "inputs": [],
      "name": "name",
      "outputs": [
        {
          "internalType": "string",
          "name": "",
          "type": "string"
        }
      ],
      "stateMutability": "view",
      "type": "function"
    },
    {
      "inputs": [],
      "name": "owner",
      "outputs": [
        {
          "internalType": "address",
          "name": "",
          "type": "address"
        }
      ],
      "stateMutability": "view",
      "type": "function"
    },
    {
      "inputs": [
        {
          "internalType": "uint256",
          "name": "tokenId",
          "type": "uint256"
        }
      ],
      "name": "ownerOf",
      "outputs": [
        {
          "internalType": "address",
          "name": "",
          "type": "address"
        }
      ],
      "stateMutability": "view",
      "type": "function"
    },
    {
      "inputs": [],
      "name": "renounceOwnership",
      "outputs": [],
      "stateMutability": "nonpayable",
      "type": "function"
    },
    {
      "inputs": [
        {
          "internalType": "address",
          "name": "from",
          "type": "address"
        },
        {
          "internalType": "address",
          "name": "to",
          "type": "address"
        },
        {
          "internalType": "uint256",
          "name": "tokenId",
          "type": "uint256"
        }
      ],
      "name": "safeTransferFrom",
      "outputs": [],
      "stateMutability": "nonpayable",
      "type": "function"
    },
    {
      "inputs": [
        {
          "internalType": "address",
          "name": "from",
          "type": "address"
        },
        {
          "internalType": "address",
          "name": "to",
          "type": "address"
        },
        {
          "internalType": "uint256",
          "name": "tokenId",
          "type": "uint256"
        },
        {
          "internalType": "bytes",
          "name": "data",
          "type": "bytes"
        }
      ],
      "name": "safeTransferFrom",
      "outputs": [],
      "stateMutability": "nonpayable",
      "type": "function"
    },
    {
      "inputs": [
        {
          "internalType": "address",
          "name": "operator",
          "type": "address"
        },
        {
          "internalType": "bool",
          "name": "approved",
          "type": "bool"
        }
      ],
      "name": "setApprovalForAll",
      "outputs": [],
      "stateMutability": "nonpayable",
      "type": "function"
    },
    {
      "inputs": [
        {
          "internalType": "bytes4",
          "name": "interfaceId",
          "type": "bytes4"
        }
      ],
      "name": "supportsInterface",
      "outputs": [
        {
          "internalType": "bool",
          "name": "",
          "type": "bool"
        }
      ],
      "stateMutability": "view",
      "type": "function"
    },
    {
      "inputs": [],
      "name": "symbol",
      "outputs": [
        {
          "internalType": "string",
          "name": "",
          "type": "string"
        }
      ],
      "stateMutability": "view",
      "type": "function"
    },
    {
      "inputs": [
        {
          "internalType": "address",
          "name": "",
          "type": "address"
        }
      ],
      "name": "tokenIdOf",
      "outputs": [
        {
          "internalType": "uint256",
          "name": "",
          "type": "uint256"
        }
      ],
      "stateMutability": "view",
      "type": "function"
    },
    {
      "inputs": [
        {
          "internalType": "uint256",
          "name": "tokenId",
          "type": "uint256"
        }
      ],
      "name": "tokenURI",
      "outputs": [
        {
          "internalType": "string",
          "name": "",
          "type": "string"
        }
      ],
      "stateMutability": "view",
      "type": "function"
    },
    {
      "inputs": [
        {
          "internalType": "address",
          "name": "from",
          "type": "address"
        },
        {
          "internalType": "address",
          "name": "to",
          "type": "address"
        },
        {
          "internalType": "uint256",
          "name": "tokenId",
          "type": "uint256"
        }
      ],
      "name": "transferFrom",
      "outputs": [],
      "stateMutability": "nonpayable",
      "type": "function"
    },
    {
      "inputs": [
        {
          "internalType": "address",
          "name": "newOwner",
          "type": "address"
        }
      ],
      "name": "transferOwnership",
      "outputs": [],
      "stateMutability": "nonpayable",
      "type": "function"
    },
    {
      "inputs": [
        {
          "internalType": "address",
          "name": "_address",
          "type": "address"
        },
        {
          "internalType": "string",
          "name": "_department",
          "type": "string"
        },
        {
          "internalType": "string",
          "name": "_role",
          "type": "string"
        }
      ],
      "name": "updateIdentity",
      "outputs": [],
      "stateMutability": "nonpayable",
      "type": "function"
    },
    {
      "inputs": [
        {
          "internalType": "uint256",
          "name": "tokenId",
          "type": "uint256"
        },
        {
          "internalType": "string",
          "name": "uri",
          "type": "string"
        }
      ],
      "name": "updateTokenURI",
      "outputs": [],
      "stateMutability": "nonpayable",
      "type": "function"
    }
  ],
  "bytecode": "0x60806040523480156200001157600080fd5b506040516200231338038062002313833981016040819052620000349162000271565b8151829082906200004d906000906020850190620000fe565b50805162000063906001906020840190620000fe565b505050620000806200007a6200009f60201b60201c565b620000a3565b620000976008620000f560201b62000cc71760201c565b505062000318565b3390565b600780546001600160a01b038381166001600160a01b0319831681179093556040519116919082907f8be0079c531659141344cd1fd0a4f28419497f9722a3daafe3b4186f6b6457e090600090a35050565b80546001019055565b8280546200010c90620002db565b90600052602060002090601f0160209004810192826200013057600085556200017b565b82601f106200014b57805160ff19168380011785556200017b565b828001600101855582156200017b579182015b828111156200017b5782518255916020019190600101906200015e565b50620001899291506200018d565b5090565b5b808211156200018957600081556001016200018e565b634e487b7160e01b600052604160045260246000fd5b600082601f830112620001cc57600080fd5b81516001600160401b0380821115620001e957620001e9620001a4565b604051601f8301601f19908116603f01168101908282118183101715620002145762000214620001a4565b816040528381526020925086838588010111156200023157600080fd5b600091505b8382101562000255578582018301518183018401529082019062000236565b83821115620002675760008385830101525b9695505050505050565b600080604083850312156200028557600080fd5b82516001600160401b03808211156200029d57600080fd5b620002ab86838701620001ba565b93506020850151915080821115620002c257600080fd5b50620002d185828601620001ba565b9150509250929050565b600181811c90821680620002f057607f821691505b602082108114156200031257634e487b7160e01b600052602260045260246000fd5b50919050565b611feb80620003286000396000f3fe608060405234801561001057600080fd5b506004361061014d5760003560e01c80636352211e116100c3578063a22cb4651161007c578063a22cb465146102e4578063b88d4fde146102f7578063c87b56dd1461030a578063e53626671461031d578063e985e9c514610325578063f2fde38b1461036157600080fd5b80636352211e1461026f57806370a0823114610282578063715018a6146102a3578063773c02d4146102ab5780638da5cb5b146102cb57806395d89b41146102dc57600080fd5b8063215522b711610115578063215522b7146101e257806323b872dd146101f55780632fea7b811461020857806342842e0e146102285780634a0706be1461023b5780634bdb751e1461024e57600080fd5b806301ffc9a71461015257806306fdde031461017a578063081812fc1461018f578063095ea7b3146101ba57806318e97fd1146101cf575b600080fd5b610165610160366004611944565b610374565b60405190151581526020015b60405180910390f35b6101826103c6565b60405161017191906119b9565b6101a261019d3660046119cc565b610458565b6040516001600160a01b039091168152602001610171565b6101cd6101c8366004611a01565b61047f565b005b6101cd6101dd366004611ad7565b61059a565b6101cd6101f0366004611b1e565b6105b0565b6101cd610203366004611b92565b61066e565b61021b610216366004611bce565b61069f565b6040516101719190611be9565b6101cd610236366004611b92565b61085c565b6101cd610249366004611c2b565b610877565b61026161025c3660046119cc565b6109b5565b604051610171929190611cc4565b6101a261027d3660046119cc565b610ae1565b610295610290366004611bce565b610b41565b604051908152602001610171565b6101cd610bc7565b6102956102b9366004611bce565b600a6020526000908152604090205481565b6007546001600160a01b03166101a2565b610182610bdb565b6101cd6102f2366004611ce9565b610bea565b6101cd610305366004611d25565b610bf5565b6101826103183660046119cc565b610c27565b610295610c32565b610165610333366004611d95565b6001600160a01b03918216600090815260056020908152604080832093909416825291909152205460ff1690565b6101cd61036f366004611bce565b610c4e565b60006001600160e01b031982166380ac58cd60e01b14806103a557506001600160e01b03198216635b5e139f60e01b145b806103c057506301ffc9a760e01b6001600160e01b03198316145b92915050565b6060600080546103d590611dc8565b80601f016020809104026020016040519081016040528092919081815260200182805461040190611dc8565b801561044e5780601f106104235761010080835404028352916020019161044e565b820191906000526020600020905b81548152906001019060200180831161043157829003601f168201915b5050505050905090565b600061046382610cd0565b506000908152600460205260409020546001600160a01b031690565b600061048a82610ae1565b9050806001600160a01b0316836001600160a01b031614156104fd5760405162461bcd60e51b815260206004820152602160248201527f4552433732313a20617070726f76616c20746f2063757272656e74206f776e656044820152603960f91b60648201526084015b60405180910390fd5b336001600160a01b038216148061051957506105198133610333565b61058b5760405162461bcd60e51b815260206004820152603d60248201527f4552433732313a20617070726f76652063616c6c6572206973206e6f7420746f60448201527f6b656e206f776e6572206f7220617070726f76656420666f7220616c6c00000060648201526084016104f4565b6105958383610d2f565b505050565b6105a2610d9d565b6105ac8282610df7565b5050565b6105b8610d9d565b6001600160a01b0383166000908152600a6020526040902054806106165760405162461bcd60e51b8152602060048201526015602482015274151bdad95b881a59081a5cc81b9bdd08195e1a5cdd605a1b60448201526064016104f4565b604080518082018252848152602080820185905260008481526009825292909220815180519293919261064c9284920190611895565b5060208281015180516106659260018501920190611895565b50505050505050565b6106783382610e91565b6106945760405162461bcd60e51b81526004016104f490611e03565b610595838383610f10565b60408051808201909152606080825260208201526001600160a01b0382166000908152600a6020526040902054806107195760405162461bcd60e51b815260206004820152601860248201527f4e6f20746f6b656e20666f72207468652061646472657373000000000000000060448201526064016104f4565b60008181526009602052604090819020815180830190925280548290829061074090611dc8565b80601f016020809104026020016040519081016040528092919081815260200182805461076c90611dc8565b80156107b95780601f1061078e576101008083540402835291602001916107b9565b820191906000526020600020905b81548152906001019060200180831161079c57829003601f168201915b505050505081526020016001820180546107d290611dc8565b80601f01602080910402602001604051908101604052809291908181526020018280546107fe90611dc8565b801561084b5780601f106108205761010080835404028352916020019161084b565b820191906000526020600020905b81548152906001019060200180831161082e57829003601f168201915b505050505081525050915050919050565b61059583838360405180602001604052806000815250610bf5565b61087f610d9d565b6001600160a01b0384166000908152600a60205260409020548015610901576108a88185610df7565b60408051808201825284815260208082018590526000848152600982529290922081518051929391926108de9284920190611895565b5060208281015180516108f79260018501920190611895565b50905050506109af565b6109138561090e60085490565b610f72565b61092561091f60085490565b85610df7565b6040518060400160405280848152602001838152506009600061094760085490565b815260208082019290925260400160002082518051919261096d92849290910190611895565b5060208281015180516109869260018501920190611895565b5050600880546001600160a01b0388166000908152600a60205260409020819055600101905550505b50505050565b6009602052600090815260409020805481906109d090611dc8565b80601f01602080910402602001604051908101604052809291908181526020018280546109fc90611dc8565b8015610a495780601f10610a1e57610100808354040283529160200191610a49565b820191906000526020600020905b815481529060010190602001808311610a2c57829003601f168201915b505050505090806001018054610a5e90611dc8565b80601f0160208091040260200160405190810160405280929190818152602001828054610a8a90611dc8565b8015610ad75780601f10610aac57610100808354040283529160200191610ad7565b820191906000526020600020905b815481529060010190602001808311610aba57829003601f168201915b5050505050905082565b6000818152600260205260408120546001600160a01b0316806103c05760405162461bcd60e51b8152602060048201526018602482015277115490cdcc8c4e881a5b9d985b1a59081d1bdad95b88125160421b60448201526064016104f4565b60006001600160a01b038216610bab5760405162461bcd60e51b815260206004820152602960248201527f4552433732313a2061646472657373207a65726f206973206e6f7420612076616044820152683634b21037bbb732b960b91b60648201526084016104f4565b506001600160a01b031660009081526003602052604090205490565b610bcf610d9d565b610bd96000610f8c565b565b6060600180546103d590611dc8565b6105ac338383610fde565b610bff3383610e91565b610c1b5760405162461bcd60e51b81526004016104f490611e03565b6109af848484846110ad565b60606103c0826110e0565b60006001610c3f60085490565b610c499190611e66565b905090565b610c56610d9d565b6001600160a01b038116610cbb5760405162461bcd60e51b815260206004820152602660248201527f4f776e61626c653a206e6577206f776e657220697320746865207a65726f206160448201526564647265737360d01b60648201526084016104f4565b610cc481610f8c565b50565b80546001019055565b6000818152600260205260409020546001600160a01b0316610cc45760405162461bcd60e51b8152602060048201526018602482015277115490cdcc8c4e881a5b9d985b1a59081d1bdad95b88125160421b60448201526064016104f4565b600081815260046020526040902080546001600160a01b0319166001600160a01b0384169081179091558190610d6482610ae1565b6001600160a01b03167f8c5be1e5ebec7d5bd14f71427d1e84f3dd0314c0f7b2291e5b200ac8c7c3b92560405160405180910390a45050565b6007546001600160a01b03163314610bd95760405162461bcd60e51b815260206004820181905260248201527f4f776e61626c653a2063616c6c6572206973206e6f7420746865206f776e657260448201526064016104f4565b6000828152600260205260409020546001600160a01b0316610e725760405162461bcd60e51b815260206004820152602e60248201527f45524337323155524953746f726167653a2055524920736574206f66206e6f6e60448201526d32bc34b9ba32b73a103a37b5b2b760911b60648201526084016104f4565b6000828152600660209081526040909120825161059592840190611895565b600080610e9d83610ae1565b9050806001600160a01b0316846001600160a01b03161480610ee457506001600160a01b0380821660009081526005602090815260408083209388168352929052205460ff165b80610f085750836001600160a01b0316610efd84610458565b6001600160a01b0316145b949350505050565b6001600160a01b03831615610f675760405162461bcd60e51b815260206004820152601c60248201527f596f752063616e2774207472616e736665722074686973204e46542e0000000060448201526064016104f4565b6105958383836111e9565b6105ac82826040518060200160405280600081525061135a565b600780546001600160a01b038381166001600160a01b0319831681179093556040519116919082907f8be0079c531659141344cd1fd0a4f28419497f9722a3daafe3b4186f6b6457e090600090a35050565b816001600160a01b0316836001600160a01b031614156110405760405162461bcd60e51b815260206004820152601960248201527f4552433732313a20617070726f766520746f2063616c6c65720000000000000060448201526064016104f4565b6001600160a01b03838116600081815260056020908152604080832094871680845294825291829020805460ff191686151590811790915591519182527f17307eab39ab6107e8899845ad3d59bd9653f200f220920489ca2b5937696c31910160405180910390a3505050565b6110b8848484610f10565b6110c48484848461138d565b6109af5760405162461bcd60e51b81526004016104f490611e7d565b60606110eb82610cd0565b6000828152600660205260408120805461110490611dc8565b80601f016020809104026020016040519081016040528092919081815260200182805461113090611dc8565b801561117d5780601f106111525761010080835404028352916020019161117d565b820191906000526020600020905b81548152906001019060200180831161116057829003601f168201915b50505050509050600061119b60408051602081019091526000815290565b90508051600014156111ae575092915050565b8151156111e05780826040516020016111c8929190611ecf565b60405160208183030381529060405292505050919050565b610f088461148b565b826001600160a01b03166111fc82610ae1565b6001600160a01b0316146112225760405162461bcd60e51b81526004016104f490611efe565b6001600160a01b0382166112845760405162461bcd60e51b8152602060048201526024808201527f4552433732313a207472616e7366657220746f20746865207a65726f206164646044820152637265737360e01b60648201526084016104f4565b61129183838360016114ff565b826001600160a01b03166112a482610ae1565b6001600160a01b0316146112ca5760405162461bcd60e51b81526004016104f490611efe565b600081815260046020908152604080832080546001600160a01b03199081169091556001600160a01b0387811680865260038552838620805460001901905590871680865283862080546001019055868652600290945282852080549092168417909155905184937fddf252ad1be2c89b69c2b068fc378daa952ba7f163c4a11628f55a4df523b3ef91a4505050565b6113648383611587565b611371600084848461138d565b6105955760405162461bcd60e51b81526004016104f490611e7d565b60006001600160a01b0384163b1561148057604051630a85bd0160e11b81526001600160a01b0385169063150b7a02906113d1903390899088908890600401611f43565b6020604051808303816000875af192505050801561140c575060408051601f3d908101601f1916820190925261140991810190611f80565b60015b611466573d80801561143a576040519150601f19603f3d011682016040523d82523d6000602084013e61143f565b606091505b50805161145e5760405162461bcd60e51b81526004016104f490611e7d565b805181602001fd5b6001600160e01b031916630a85bd0160e11b149050610f08565b506001949350505050565b606061149682610cd0565b60006114ad60408051602081019091526000815290565b905060008151116114cd57604051806020016040528060008152506114f8565b806114d784611720565b6040516020016114e8929190611ecf565b6040516020818303038152906040525b9392505050565b60018111156109af576001600160a01b03841615611545576001600160a01b0384166000908152600360205260408120805483929061153f908490611e66565b90915550505b6001600160a01b038316156109af576001600160a01b0383166000908152600360205260408120805483929061157c908490611f9d565b909155505050505050565b6001600160a01b0382166115dd5760405162461bcd60e51b815260206004820181905260248201527f4552433732313a206d696e7420746f20746865207a65726f206164647265737360448201526064016104f4565b6000818152600260205260409020546001600160a01b0316156116425760405162461bcd60e51b815260206004820152601c60248201527f4552433732313a20746f6b656e20616c7265616479206d696e7465640000000060448201526064016104f4565b6116506000838360016114ff565b6000818152600260205260409020546001600160a01b0316156116b55760405162461bcd60e51b815260206004820152601c60248201527f4552433732313a20746f6b656e20616c7265616479206d696e7465640000000060448201526064016104f4565b6001600160a01b038216600081815260036020908152604080832080546001019055848352600290915280822080546001600160a01b0319168417905551839291907fddf252ad1be2c89b69c2b068fc378daa952ba7f163c4a11628f55a4df523b3ef908290a45050565b6060600061172d836117bd565b600101905060008167ffffffffffffffff81111561174d5761174d611a2b565b6040519080825280601f01601f191660200182016040528015611777576020820181803683370190505b5090508181016020015b600019016f181899199a1a9b1b9c1cb0b131b232b360811b600a86061a8153600a85049450846117b0576117b5565b611781565b509392505050565b60008072184f03e93ff9f4daa797ed6e38ed64bf6a1f0160401b83106117fc5772184f03e93ff9f4daa797ed6e38ed64bf6a1f0160401b830492506040015b6d04ee2d6d415b85acef81000000008310611828576d04ee2d6d415b85acef8100000000830492506020015b662386f26fc10000831061184657662386f26fc10000830492506010015b6305f5e100831061185e576305f5e100830492506008015b612710831061187257612710830492506004015b60648310611884576064830492506002015b600a83106103c05760010192915050565b8280546118a190611dc8565b90600052602060002090601f0160209004810192826118c35760008555611909565b82601f106118dc57805160ff1916838001178555611909565b82800160010185558215611909579182015b828111156119095782518255916020019190600101906118ee565b50611915929150611919565b5090565b5b80821115611915576000815560010161191a565b6001600160e01b031981168114610cc457600080fd5b60006020828403121561195657600080fd5b81356114f88161192e565b60005b8381101561197c578181015183820152602001611964565b838111156109af5750506000910152565b600081518084526119a5816020860160208601611961565b601f01601f19169290920160200192915050565b6020815260006114f8602083018461198d565b6000602082840312156119de57600080fd5b5035919050565b80356001600160a01b03811681146119fc57600080fd5b919050565b60008060408385031215611a1457600080fd5b611a1d836119e5565b946020939093013593505050565b634e487b7160e01b600052604160045260246000fd5b600067ffffffffffffffff80841115611a5c57611a5c611a2b565b604051601f8501601f19908116603f01168101908282118183101715611a8457611a84611a2b565b81604052809350858152868686011115611a9d57600080fd5b858560208301376000602087830101525050509392505050565b600082601f830112611ac857600080fd5b6114f883833560208501611a41565b60008060408385031215611aea57600080fd5b82359150602083013567ffffffffffffffff811115611b0857600080fd5b611b1485828601611ab7565b9150509250929050565b600080600060608486031215611b3357600080fd5b611b3c846119e5565b9250602084013567ffffffffffffffff80821115611b5957600080fd5b611b6587838801611ab7565b93506040860135915080821115611b7b57600080fd5b50611b8886828701611ab7565b9150509250925092565b600080600060608486031215611ba757600080fd5b611bb0846119e5565b9250611bbe602085016119e5565b9150604084013590509250925092565b600060208284031215611be057600080fd5b6114f8826119e5565b602081526000825160406020840152611c05606084018261198d565b90506020840151601f19848303016040850152611c22828261198d565b95945050505050565b60008060008060808587031215611c4157600080fd5b611c4a856119e5565b9350602085013567ffffffffffffffff80821115611c6757600080fd5b611c7388838901611ab7565b94506040870135915080821115611c8957600080fd5b611c9588838901611ab7565b93506060870135915080821115611cab57600080fd5b50611cb887828801611ab7565b91505092959194509250565b604081526000611cd7604083018561198d565b8281036020840152611c22818561198d565b60008060408385031215611cfc57600080fd5b611d05836119e5565b915060208301358015158114611d1a57600080fd5b809150509250929050565b60008060008060808587031215611d3b57600080fd5b611d44856119e5565b9350611d52602086016119e5565b925060408501359150606085013567ffffffffffffffff811115611d7557600080fd5b8501601f81018713611d8657600080fd5b611cb887823560208401611a41565b60008060408385031215611da857600080fd5b611db1836119e5565b9150611dbf602084016119e5565b90509250929050565b600181811c90821680611ddc57607f821691505b60208210811415611dfd57634e487b7160e01b600052602260045260246000fd5b50919050565b6020808252602d908201527f4552433732313a2063616c6c6572206973206e6f7420746f6b656e206f776e6560408201526c1c881bdc88185c1c1c9bdd9959609a1b606082015260800190565b634e487b7160e01b600052601160045260246000fd5b600082821015611e7857611e78611e50565b500390565b60208082526032908201527f4552433732313a207472616e7366657220746f206e6f6e20455243373231526560408201527131b2b4bb32b91034b6b83632b6b2b73a32b960711b606082015260800190565b60008351611ee1818460208801611961565b835190830190611ef5818360208801611961565b01949350505050565b60208082526025908201527f4552433732313a207472616e736665722066726f6d20696e636f72726563742060408201526437bbb732b960d91b606082015260800190565b6001600160a01b0385811682528416602082015260408101839052608060608201819052600090611f769083018461198d565b9695505050505050565b600060208284031215611f9257600080fd5b81516114f88161192e565b60008219821115611fb057611fb0611e50565b50019056fea2646970667358221220be1cb44384f6e27ef1a77e0908f18af1f7c77fd8bd05f1bce336685bdd595d8264736f6c634300080b0033",
  "linkReferences": {},
  "deployedLinkReferences": {}
}