{"contracts/Proposal.sol":{"DAO":{"abi":[{"inputs":[{"internalType":"address","name":"_roleNFT","type":"address"}],"stateMutability":"nonpayable","type":"constructor"},{"anonymous":false,"inputs":[{"indexed":true,"internalType":"address","name":"previousOwner","type":"address"},{"indexed":true,"internalType":"address","name":"newOwner","type":"address"}],"name":"OwnershipTransferred","type":"event"},{"inputs":[{"internalType":"uint256","name":"_level","type":"uint256"},{"internalType":"string","name":"_role","type":"string"}],"name":"addPermission","outputs":[],"stateMutability":"nonpayable","type":"function"},{"inputs":[{"internalType":"uint256","name":"index","type":"uint256"}],"name":"approveProposal","outputs":[],"stateMutability":"nonpayable","type":"function"},{"inputs":[{"internalType":"string","name":"_contentURI","type":"string"},{"internalType":"bool","name":"_isPublic","type":"bool"}],"name":"createProposal","outputs":[],"stateMutability":"nonpayable","type":"function"},{"inputs":[{"internalType":"uint256","name":"_level","type":"uint256"},{"internalType":"uint256","name":"index","type":"uint256"}],"name":"deletePermission","outputs":[],"stateMutability":"nonpayable","type":"function"},{"inputs":[{"internalType":"uint256","name":"index","type":"uint256"}],"name":"deleteProposal","outputs":[],"stateMutability":"nonpayable","type":"function"},{"inputs":[{"internalType":"uint256","name":"start","type":"uint256"},{"internalType":"uint256","name":"end","type":"uint256"}],"name":"getAllProposal","outputs":[{"components":[{"internalType":"address","name":"creator","type":"address"},{"internalType":"string","name":"contentURL","type":"string"},{"internalType":"uint256","name":"level","type":"uint256"},{"internalType":"bool","name":"isRejected","type":"bool"},{"internalType":"bool","name":"isPublic","type":"bool"}],"internalType":"struct DAO.Proposal[]","name":"","type":"tuple[]"}],"stateMutability":"view","type":"function"},{"inputs":[{"internalType":"uint256","name":"_level","type":"uint256"}],"name":"getPermissionsOfLevel","outputs":[{"internalType":"bytes32[]","name":"","type":"bytes32[]"}],"stateMutability":"view","type":"function"},{"inputs":[],"name":"getProposalCount","outputs":[{"internalType":"uint256","name":"","type":"uint256"}],"stateMutability":"view","type":"function"},{"inputs":[],"name":"owner","outputs":[{"internalType":"address","name":"","type":"address"}],"stateMutability":"view","type":"function"},{"inputs":[{"internalType":"uint256","name":"index","type":"uint256"}],"name":"rejectProposal","outputs":[],"stateMutability":"nonpayable","type":"function"},{"inputs":[],"name":"renounceOwnership","outputs":[],"stateMutability":"nonpayable","type":"function"},{"inputs":[],"name":"roleNFT","outputs":[{"internalType":"contract IRoleNFT","name":"","type":"address"}],"stateMutability":"view","type":"function"},{"inputs":[{"internalType":"address","name":"_roleNFT","type":"address"}],"name":"setRoleNFT","outputs":[],"stateMutability":"nonpayable","type":"function"},{"inputs":[{"internalType":"address","name":"newOwner","type":"address"}],"name":"transferOwnership","outputs":[],"stateMutability":"nonpayable","type":"function"}],"evm":{"bytecode":{"linkReferences":{},"object":"608060405234801561001057600080fd5b506040516115f43803806115f483398101604081905261002f91610270565b61003833610220565b600180546001600160a01b0319166001600160a01b039290921691909117815560036020527f3617319a054d772f909f7c479a2cebe5066e836a939412e32403c99029b92eff80548083019091557fe1726417091f8691ab536ba2d7df002e7023daa1d7caaebcc90d05f6ad11d42c7fcfb339bd1c51c488f6134f4ac63d1594afad827b3401c3fc51ed1da74a8ca14e909101557fa15bc60c955c405d20d9149c709e2460f1c2d9a497496a7f46004d1772c3054c80548083019091557fea232b257d795db5a71c4618af40da9c05945509ab953406f063503dd1e6a1c97f2c644dcf44e265ba93879b2da89e1b16ab48fc5eb8e31bc16b0612d6da8463f1909101557fc3a24b0501bd2c13a7e57f2db4369ec4c223447539fc0724a9d55ac4a06ebd4d80548083019091557fb5830fe8e17f3f12f738592dbd6cebe67a46fbd8fe9ee2c1edb036cd16194bd27f19b5847ec9d8983e32da86b2c2bedc7b0bcabd1d214557fda78706fe7ba568ce909101557fcbc4e5fb02c3d1de23a9f1e014b4d2ee5aeaea9505df5e855c9210bf472495af805491820181556000527fdc0d7a095c4e917ecbeb7deda7c942ff9744013d419e37549215a413915e421d7ffa8d260207fe657f2346775cc7df9e07ba0a08e64ccd28972b30bb03ba9b295b909101556102a0565b600080546001600160a01b038381166001600160a01b0319831681178455604051919092169283917f8be0079c531659141344cd1fd0a4f28419497f9722a3daafe3b4186f6b6457e09190a35050565b60006020828403121561028257600080fd5b81516001600160a01b038116811461029957600080fd5b9392505050565b611345806102af6000396000f3fe608060405234801561001057600080fd5b50600436106100ea5760003560e01c8063a9aba8181161008c578063c41f9b0c11610066578063c41f9b0c146101d7578063c597949c146101ea578063ee593070146101fd578063f2fde38b1461021057600080fd5b8063a9aba81814610193578063bc28d878146101b3578063c08cc02d146101c657600080fd5b80638259d553116100c85780638259d553146101355780638da5cb5b14610148578063971afbf21461016d57806398951b561461018057600080fd5b8063262feb9e146100ef57806363c7da4714610118578063715018a61461012d575b600080fd5b6101026100fd366004610dd3565b610223565b60405161010f9190610e25565b60405180910390f35b61012b610126366004610ee5565b610414565b005b61012b61043e565b61012b610143366004610f15565b610452565b6000546001600160a01b03165b6040516001600160a01b03909116815260200161010f565b61012b61017b366004610dd3565b6105b5565b61012b61018e366004610f15565b610661565b6101a66101a1366004610f15565b610866565b60405161010f9190610f2e565b61012b6101c1366004610f15565b6108c8565b60025460405190815260200161010f565b61012b6101e5366004611037565b610a10565b600154610155906001600160a01b031681565b61012b61020b36600461107e565b610a67565b61012b61021e366004610ee5565b610b62565b6002546060908211156102515760405162461bcd60e51b8152600401610248906110d5565b60405180910390fd5b600061025d8484611112565b67ffffffffffffffff81111561027557610275610f72565b6040519080825280602002602001820160405280156102ce57816020015b6040805160a0810182526000808252606060208084018290529383018290528201819052608082015282526000199092019101816102935790505b509050835b8381101561040c57600281815481106102ee576102ee611129565b60009182526020918290206040805160a0810190915260049092020180546001600160a01b03168252600181018054929391929184019161032e9061113f565b80601f016020809104026020016040519081016040528092919081815260200182805461035a9061113f565b80156103a75780601f1061037c576101008083540402835291602001916103a7565b820191906000526020600020905b81548152906001019060200180831161038a57829003601f168201915b50505091835250506002820154602082015260039091015460ff8082161515604084015261010090910416151560609091015282518390839081106103ee576103ee611129565b602002602001018190525080806104049061117a565b9150506102d3565b509392505050565b61041c610bdb565b600180546001600160a01b0319166001600160a01b0392909216919091179055565b610446610bdb565b6104506000610c35565b565b61045a610bdb565b600254811061047b5760405162461bcd60e51b8152600401610248906110d5565b6002805461048b90600190611112565b8154811061049b5761049b611129565b9060005260206000209060040201600282815481106104bc576104bc611129565b60009182526020909120825460049092020180546001600160a01b0319166001600160a01b0390921691909117815560018083018054918301916104ff9061113f565b61050a929190610c85565b50600282810154828201556003928301805493909201805460ff948516151560ff19821681178355935461010090819004909516151590940261ff001990931661ffff19909416939093179190911790915580548061056b5761056b611195565b60008281526020812060046000199093019283020180546001600160a01b03191681559061059c6001830182610d10565b5060006002820155600301805461ffff19169055905550565b6105bd610bdb565b6000828152600360205260409020805482106105eb5760405162461bcd60e51b8152600401610248906110d5565b805481906105fb90600190611112565b8154811061060b5761060b611129565b906000526020600020015481838154811061062857610628611129565b90600052602060002001819055508080548061064657610646611195565b60019003818190600052602060002001600090559055505050565b6002818154811061067457610674611129565b600091825260209091206003600490920201015460ff16156106d85760405162461bcd60e51b815260206004820152601960248201527f546869732070726f706f73616c2069732072656a6563746564000000000000006044820152606401610248565b6000600282815481106106ed576106ed611129565b600091825260208220600154604051632fea7b8160e01b8152336004808301919091529390930290910193506001600160a01b031690632fea7b8190602401600060405180830381865afa158015610749573d6000803e3d6000fd5b505050506040513d6000823e601f3d908101601f1916820160405261077191908101906111f8565b805160208083015160405193945060009361078d93920161129f565b60405160208183030381529060405280519060200120905060005b600284015460009081526003602052604090205481101561082d57600284015460009081526003602052604090208054829081106107e8576107e8611129565b906000526020600020015482141561081b57600184600201600082825461080f91906112db565b90915550505050505050565b806108258161117a565b9150506107a8565b5060405162461bcd60e51b815260206004820152600d60248201526c2737903832b936b4b9b9b4b7b760991b6044820152606401610248565b6000818152600360209081526040918290208054835181840281018401909452808452606093928301828280156108bc57602002820191906000526020600020905b8154815260200190600101908083116108a8575b50505050509050919050565b6000600282815481106108dd576108dd611129565b600091825260208220600154604051632fea7b8160e01b8152336004808301919091529390930290910193506001600160a01b031690632fea7b8190602401600060405180830381865afa158015610939573d6000803e3d6000fd5b505050506040513d6000823e601f3d908101601f1916820160405261096191908101906111f8565b805160208083015160405193945060009361097d93920161129f565b60405160208183030381529060405280519060200120905060005b600284015460009081526003602052604090205481101561082d57600284015460009081526003602052604090208054829081106109d8576109d8611129565b90600052602060002001548214156109fe57505050600301805460ff1916600117905550565b80610a088161117a565b915050610998565b610a18610bdb565b6000828152600360209081526040918290209151610a38918491016112f3565b60408051601f198184030181529190528051602091820120825460018101845560009384529190922001555050565b6040805160a0810182523381526020808201858152600093830184905260608301849052841515608084015260028054600181018255945282517f405787fa12a823e0f2b7631cc41b3ba8828b3321ca811111fa75cd3aa3bb5ace600490950294850180546001600160a01b0319166001600160a01b039092169190911781559051805193949193610b22937f405787fa12a823e0f2b7631cc41b3ba8828b3321ca811111fa75cd3aa3bb5acf909301929190910190610d4a565b506040820151600282015560608201516003909101805460809093015115156101000261ff00199215159290921661ffff19909316929092171790555050565b610b6a610bdb565b6001600160a01b038116610bcf5760405162461bcd60e51b815260206004820152602660248201527f4f776e61626c653a206e6577206f776e657220697320746865207a65726f206160448201526564647265737360d01b6064820152608401610248565b610bd881610c35565b50565b6000546001600160a01b031633146104505760405162461bcd60e51b815260206004820181905260248201527f4f776e61626c653a2063616c6c6572206973206e6f7420746865206f776e65726044820152606401610248565b600080546001600160a01b038381166001600160a01b0319831681178455604051919092169283917f8be0079c531659141344cd1fd0a4f28419497f9722a3daafe3b4186f6b6457e09190a35050565b828054610c919061113f565b90600052602060002090601f016020900481019282610cb35760008555610d00565b82601f10610cc45780548555610d00565b82800160010185558215610d0057600052602060002091601f016020900482015b82811115610d00578254825591600101919060010190610ce5565b50610d0c929150610dbe565b5090565b508054610d1c9061113f565b6000825580601f10610d2c575050565b601f016020900490600052602060002090810190610bd89190610dbe565b828054610d569061113f565b90600052602060002090601f016020900481019282610d785760008555610d00565b82601f10610d9157805160ff1916838001178555610d00565b82800160010185558215610d00579182015b82811115610d00578251825591602001919060010190610da3565b5b80821115610d0c5760008155600101610dbf565b60008060408385031215610de657600080fd5b50508035926020909101359150565b60005b83811015610e10578181015183820152602001610df8565b83811115610e1f576000848401525b50505050565b60006020808301818452808551808352604092508286019150828160051b87010184880160005b83811015610ed757888303603f19018552815180516001600160a01b031684528781015160a0898601819052815190860181905260c09190610e9381848901848e01610df5565b89840151878b01526060808501511515908801526080938401511515938701939093525095880195601f909101601f19169093019092019190860190600101610e4c565b509098975050505050505050565b600060208284031215610ef757600080fd5b81356001600160a01b0381168114610f0e57600080fd5b9392505050565b600060208284031215610f2757600080fd5b5035919050565b6020808252825182820181905260009190848201906040850190845b81811015610f6657835183529284019291840191600101610f4a565b50909695505050505050565b634e487b7160e01b600052604160045260246000fd5b604051601f8201601f1916810167ffffffffffffffff81118282101715610fb157610fb1610f72565b604052919050565b600067ffffffffffffffff821115610fd357610fd3610f72565b50601f01601f191660200190565b600082601f830112610ff257600080fd5b813561100561100082610fb9565b610f88565b81815284602083860101111561101a57600080fd5b816020850160208301376000918101602001919091529392505050565b6000806040838503121561104a57600080fd5b82359150602083013567ffffffffffffffff81111561106857600080fd5b61107485828601610fe1565b9150509250929050565b6000806040838503121561109157600080fd5b823567ffffffffffffffff8111156110a857600080fd5b6110b485828601610fe1565b925050602083013580151581146110ca57600080fd5b809150509250929050565b6020808252600d908201526c092dcecc2d8d2c84092dcc8caf609b1b604082015260600190565b634e487b7160e01b600052601160045260246000fd5b600082821015611124576111246110fc565b500390565b634e487b7160e01b600052603260045260246000fd5b600181811c9082168061115357607f821691505b6020821081141561117457634e487b7160e01b600052602260045260246000fd5b50919050565b600060001982141561118e5761118e6110fc565b5060010190565b634e487b7160e01b600052603160045260246000fd5b600082601f8301126111bc57600080fd5b81516111ca61100082610fb9565b8181528460208386010111156111df57600080fd5b6111f0826020830160208701610df5565b949350505050565b60006020828403121561120a57600080fd5b815167ffffffffffffffff8082111561122257600080fd5b908301906040828603121561123657600080fd5b60405160408101818110838211171561125157611251610f72565b60405282518281111561126357600080fd5b61126f878286016111ab565b82525060208301518281111561128457600080fd5b611290878286016111ab565b60208301525095945050505050565b600083516112b1818460208801610df5565b605f60f81b90830190815283516112cf816001840160208801610df5565b01600101949350505050565b600082198211156112ee576112ee6110fc565b500190565b60008251611305818460208701610df5565b919091019291505056fea264697066735822122024e798ce4541a77ff093ffb639971b1997db22d9c4dffa5820fb2efd7dbb71eb64736f6c634300080b0033","opcodes":"PUSH1 0x80 PUSH1 0x40 MSTORE CALLVALUE DUP1 ISZERO PUSH2 0x10 JUMPI PUSH1 0x0 DUP1 REVERT JUMPDEST POP PUSH1 0x40 MLOAD PUSH2 0x15F4 CODESIZE SUB DUP1 PUSH2 0x15F4 DUP4 CODECOPY DUP2 ADD PUSH1 0x40 DUP2 SWAP1 MSTORE PUSH2 0x2F SWAP2 PUSH2 0x270 JUMP JUMPDEST PUSH2 0x38 CALLER PUSH2 0x220 JUMP JUMPDEST PUSH1 0x1 DUP1 SLOAD PUSH1 0x1 PUSH1 0x1 PUSH1 0xA0 SHL SUB NOT AND PUSH1 0x1 PUSH1 0x1 PUSH1 0xA0 SHL SUB SWAP3 SWAP1 SWAP3 AND SWAP2 SWAP1 SWAP2 OR DUP2 SSTORE PUSH1 0x3 PUSH1 0x20 MSTORE PUSH32 0x3617319A054D772F909F7C479A2CEBE5066E836A939412E32403C99029B92EFF DUP1 SLOAD DUP1 DUP4 ADD SWAP1 SWAP2 SSTORE PUSH32 0xE1726417091F8691AB536BA2D7DF002E7023DAA1D7CAAEBCC90D05F6AD11D42C PUSH32 0xCFB339BD1C51C488F6134F4AC63D1594AFAD827B3401C3FC51ED1DA74A8CA14E SWAP1 SWAP2 ADD SSTORE PUSH32 0xA15BC60C955C405D20D9149C709E2460F1C2D9A497496A7F46004D1772C3054C DUP1 SLOAD DUP1 DUP4 ADD SWAP1 SWAP2 SSTORE PUSH32 0xEA232B257D795DB5A71C4618AF40DA9C05945509AB953406F063503DD1E6A1C9 PUSH32 0x2C644DCF44E265BA93879B2DA89E1B16AB48FC5EB8E31BC16B0612D6DA8463F1 SWAP1 SWAP2 ADD SSTORE PUSH32 0xC3A24B0501BD2C13A7E57F2DB4369EC4C223447539FC0724A9D55AC4A06EBD4D DUP1 SLOAD DUP1 DUP4 ADD SWAP1 SWAP2 SSTORE PUSH32 0xB5830FE8E17F3F12F738592DBD6CEBE67A46FBD8FE9EE2C1EDB036CD16194BD2 PUSH32 0x19B5847EC9D8983E32DA86B2C2BEDC7B0BCABD1D214557FDA78706FE7BA568CE SWAP1 SWAP2 ADD SSTORE PUSH32 0xCBC4E5FB02C3D1DE23A9F1E014B4D2EE5AEAEA9505DF5E855C9210BF472495AF DUP1 SLOAD SWAP2 DUP3 ADD DUP2 SSTORE PUSH1 0x0 MSTORE PUSH32 0xDC0D7A095C4E917ECBEB7DEDA7C942FF9744013D419E37549215A413915E421D PUSH32 0xFA8D260207FE657F2346775CC7DF9E07BA0A08E64CCD28972B30BB03BA9B295B SWAP1 SWAP2 ADD SSTORE PUSH2 0x2A0 JUMP JUMPDEST PUSH1 0x0 DUP1 SLOAD PUSH1 0x1 PUSH1 0x1 PUSH1 0xA0 SHL SUB DUP4 DUP2 AND PUSH1 0x1 PUSH1 0x1 PUSH1 0xA0 SHL SUB NOT DUP4 AND DUP2 OR DUP5 SSTORE PUSH1 0x40 MLOAD SWAP2 SWAP1 SWAP3 AND SWAP3 DUP4 SWAP2 PUSH32 0x8BE0079C531659141344CD1FD0A4F28419497F9722A3DAAFE3B4186F6B6457E0 SWAP2 SWAP1 LOG3 POP POP JUMP JUMPDEST PUSH1 0x0 PUSH1 0x20 DUP3 DUP5 SUB SLT ISZERO PUSH2 0x282 JUMPI PUSH1 0x0 DUP1 REVERT JUMPDEST DUP2 MLOAD PUSH1 0x1 PUSH1 0x1 PUSH1 0xA0 SHL SUB DUP2 AND DUP2 EQ PUSH2 0x299 JUMPI PUSH1 0x0 DUP1 REVERT JUMPDEST SWAP4 SWAP3 POP POP POP JUMP JUMPDEST PUSH2 0x1345 DUP1 PUSH2 0x2AF PUSH1 0x0 CODECOPY PUSH1 0x0 RETURN INVALID PUSH1 0x80 PUSH1 0x40 MSTORE CALLVALUE DUP1 ISZERO PUSH2 0x10 JUMPI PUSH1 0x0 DUP1 REVERT JUMPDEST POP PUSH1 0x4 CALLDATASIZE LT PUSH2 0xEA JUMPI PUSH1 0x0 CALLDATALOAD PUSH1 0xE0 SHR DUP1 PUSH4 0xA9ABA818 GT PUSH2 0x8C JUMPI DUP1 PUSH4 0xC41F9B0C GT PUSH2 0x66 JUMPI DUP1 PUSH4 0xC41F9B0C EQ PUSH2 0x1D7 JUMPI DUP1 PUSH4 0xC597949C EQ PUSH2 0x1EA JUMPI DUP1 PUSH4 0xEE593070 EQ PUSH2 0x1FD JUMPI DUP1 PUSH4 0xF2FDE38B EQ PUSH2 0x210 JUMPI PUSH1 0x0 DUP1 REVERT JUMPDEST DUP1 PUSH4 0xA9ABA818 EQ PUSH2 0x193 JUMPI DUP1 PUSH4 0xBC28D878 EQ PUSH2 0x1B3 JUMPI DUP1 PUSH4 0xC08CC02D EQ PUSH2 0x1C6 JUMPI PUSH1 0x0 DUP1 REVERT JUMPDEST DUP1 PUSH4 0x8259D553 GT PUSH2 0xC8 JUMPI DUP1 PUSH4 0x8259D553 EQ PUSH2 0x135 JUMPI DUP1 PUSH4 0x8DA5CB5B EQ PUSH2 0x148 JUMPI DUP1 PUSH4 0x971AFBF2 EQ PUSH2 0x16D JUMPI DUP1 PUSH4 0x98951B56 EQ PUSH2 0x180 JUMPI PUSH1 0x0 DUP1 REVERT JUMPDEST DUP1 PUSH4 0x262FEB9E EQ PUSH2 0xEF JUMPI DUP1 PUSH4 0x63C7DA47 EQ PUSH2 0x118 JUMPI DUP1 PUSH4 0x715018A6 EQ PUSH2 0x12D JUMPI JUMPDEST PUSH1 0x0 DUP1 REVERT JUMPDEST PUSH2 0x102 PUSH2 0xFD CALLDATASIZE PUSH1 0x4 PUSH2 0xDD3 JUMP JUMPDEST PUSH2 0x223 JUMP JUMPDEST PUSH1 0x40 MLOAD PUSH2 0x10F SWAP2 SWAP1 PUSH2 0xE25 JUMP JUMPDEST PUSH1 0x40 MLOAD DUP1 SWAP2 SUB SWAP1 RETURN JUMPDEST PUSH2 0x12B PUSH2 0x126 CALLDATASIZE PUSH1 0x4 PUSH2 0xEE5 JUMP JUMPDEST PUSH2 0x414 JUMP JUMPDEST STOP JUMPDEST PUSH2 0x12B PUSH2 0x43E JUMP JUMPDEST PUSH2 0x12B PUSH2 0x143 CALLDATASIZE PUSH1 0x4 PUSH2 0xF15 JUMP JUMPDEST PUSH2 0x452 JUMP JUMPDEST PUSH1 0x0 SLOAD PUSH1 0x1 PUSH1 0x1 PUSH1 0xA0 SHL SUB AND JUMPDEST PUSH1 0x40 MLOAD PUSH1 0x1 PUSH1 0x1 PUSH1 0xA0 SHL SUB SWAP1 SWAP2 AND DUP2 MSTORE PUSH1 0x20 ADD PUSH2 0x10F JUMP JUMPDEST PUSH2 0x12B PUSH2 0x17B CALLDATASIZE PUSH1 0x4 PUSH2 0xDD3 JUMP JUMPDEST PUSH2 0x5B5 JUMP JUMPDEST PUSH2 0x12B PUSH2 0x18E CALLDATASIZE PUSH1 0x4 PUSH2 0xF15 JUMP JUMPDEST PUSH2 0x661 JUMP JUMPDEST PUSH2 0x1A6 PUSH2 0x1A1 CALLDATASIZE PUSH1 0x4 PUSH2 0xF15 JUMP JUMPDEST PUSH2 0x866 JUMP JUMPDEST PUSH1 0x40 MLOAD PUSH2 0x10F SWAP2 SWAP1 PUSH2 0xF2E JUMP JUMPDEST PUSH2 0x12B PUSH2 0x1C1 CALLDATASIZE PUSH1 0x4 PUSH2 0xF15 JUMP JUMPDEST PUSH2 0x8C8 JUMP JUMPDEST PUSH1 0x2 SLOAD PUSH1 0x40 MLOAD SWAP1 DUP2 MSTORE PUSH1 0x20 ADD PUSH2 0x10F JUMP JUMPDEST PUSH2 0x12B PUSH2 0x1E5 CALLDATASIZE PUSH1 0x4 PUSH2 0x1037 JUMP JUMPDEST PUSH2 0xA10 JUMP JUMPDEST PUSH1 0x1 SLOAD PUSH2 0x155 SWAP1 PUSH1 0x1 PUSH1 0x1 PUSH1 0xA0 SHL SUB AND DUP2 JUMP JUMPDEST PUSH2 0x12B PUSH2 0x20B CALLDATASIZE PUSH1 0x4 PUSH2 0x107E JUMP JUMPDEST PUSH2 0xA67 JUMP JUMPDEST PUSH2 0x12B PUSH2 0x21E CALLDATASIZE PUSH1 0x4 PUSH2 0xEE5 JUMP JUMPDEST PUSH2 0xB62 JUMP JUMPDEST PUSH1 0x2 SLOAD PUSH1 0x60 SWAP1 DUP3 GT ISZERO PUSH2 0x251 JUMPI PUSH1 0x40 MLOAD PUSH3 0x461BCD PUSH1 0xE5 SHL DUP2 MSTORE PUSH1 0x4 ADD PUSH2 0x248 SWAP1 PUSH2 0x10D5 JUMP JUMPDEST PUSH1 0x40 MLOAD DUP1 SWAP2 SUB SWAP1 REVERT JUMPDEST PUSH1 0x0 PUSH2 0x25D DUP5 DUP5 PUSH2 0x1112 JUMP JUMPDEST PUSH8 0xFFFFFFFFFFFFFFFF DUP2 GT ISZERO PUSH2 0x275 JUMPI PUSH2 0x275 PUSH2 0xF72 JUMP JUMPDEST PUSH1 0x40 MLOAD SWAP1 DUP1 DUP3 MSTORE DUP1 PUSH1 0x20 MUL PUSH1 0x20 ADD DUP3 ADD PUSH1 0x40 MSTORE DUP1 ISZERO PUSH2 0x2CE JUMPI DUP2 PUSH1 0x20 ADD JUMPDEST PUSH1 0x40 DUP1 MLOAD PUSH1 0xA0 DUP2 ADD DUP3 MSTORE PUSH1 0x0 DUP1 DUP3 MSTORE PUSH1 0x60 PUSH1 0x20 DUP1 DUP5 ADD DUP3 SWAP1 MSTORE SWAP4 DUP4 ADD DUP3 SWAP1 MSTORE DUP3 ADD DUP2 SWAP1 MSTORE PUSH1 0x80 DUP3 ADD MSTORE DUP3 MSTORE PUSH1 0x0 NOT SWAP1 SWAP3 ADD SWAP2 ADD DUP2 PUSH2 0x293 JUMPI SWAP1 POP JUMPDEST POP SWAP1 POP DUP4 JUMPDEST DUP4 DUP2 LT ISZERO PUSH2 0x40C JUMPI PUSH1 0x2 DUP2 DUP2 SLOAD DUP2 LT PUSH2 0x2EE JUMPI PUSH2 0x2EE PUSH2 0x1129 JUMP JUMPDEST PUSH1 0x0 SWAP2 DUP3 MSTORE PUSH1 0x20 SWAP2 DUP3 SWAP1 KECCAK256 PUSH1 0x40 DUP1 MLOAD PUSH1 0xA0 DUP2 ADD SWAP1 SWAP2 MSTORE PUSH1 0x4 SWAP1 SWAP3 MUL ADD DUP1 SLOAD PUSH1 0x1 PUSH1 0x1 PUSH1 0xA0 SHL SUB AND DUP3 MSTORE PUSH1 0x1 DUP2 ADD DUP1 SLOAD SWAP3 SWAP4 SWAP2 SWAP3 SWAP2 DUP5 ADD SWAP2 PUSH2 0x32E SWAP1 PUSH2 0x113F JUMP JUMPDEST DUP1 PUSH1 0x1F ADD PUSH1 0x20 DUP1 SWAP2 DIV MUL PUSH1 0x20 ADD PUSH1 0x40 MLOAD SWAP1 DUP2 ADD PUSH1 0x40 MSTORE DUP1 SWAP3 SWAP2 SWAP1 DUP2 DUP2 MSTORE PUSH1 0x20 ADD DUP3 DUP1 SLOAD PUSH2 0x35A SWAP1 PUSH2 0x113F JUMP JUMPDEST DUP1 ISZERO PUSH2 0x3A7 JUMPI DUP1 PUSH1 0x1F LT PUSH2 0x37C JUMPI PUSH2 0x100 DUP1 DUP4 SLOAD DIV MUL DUP4 MSTORE SWAP2 PUSH1 0x20 ADD SWAP2 PUSH2 0x3A7 JUMP JUMPDEST DUP3 ADD SWAP2 SWAP1 PUSH1 0x0 MSTORE PUSH1 0x20 PUSH1 0x0 KECCAK256 SWAP1 JUMPDEST DUP2 SLOAD DUP2 MSTORE SWAP1 PUSH1 0x1 ADD SWAP1 PUSH1 0x20 ADD DUP1 DUP4 GT PUSH2 0x38A JUMPI DUP3 SWAP1 SUB PUSH1 0x1F AND DUP3 ADD SWAP2 JUMPDEST POP POP POP SWAP2 DUP4 MSTORE POP POP PUSH1 0x2 DUP3 ADD SLOAD PUSH1 0x20 DUP3 ADD MSTORE PUSH1 0x3 SWAP1 SWAP2 ADD SLOAD PUSH1 0xFF DUP1 DUP3 AND ISZERO ISZERO PUSH1 0x40 DUP5 ADD MSTORE PUSH2 0x100 SWAP1 SWAP2 DIV AND ISZERO ISZERO PUSH1 0x60 SWAP1 SWAP2 ADD MSTORE DUP3 MLOAD DUP4 SWAP1 DUP4 SWAP1 DUP2 LT PUSH2 0x3EE JUMPI PUSH2 0x3EE PUSH2 0x1129 JUMP JUMPDEST PUSH1 0x20 MUL PUSH1 0x20 ADD ADD DUP2 SWAP1 MSTORE POP DUP1 DUP1 PUSH2 0x404 SWAP1 PUSH2 0x117A JUMP JUMPDEST SWAP2 POP POP PUSH2 0x2D3 JUMP JUMPDEST POP SWAP4 SWAP3 POP POP POP JUMP JUMPDEST PUSH2 0x41C PUSH2 0xBDB JUMP JUMPDEST PUSH1 0x1 DUP1 SLOAD PUSH1 0x1 PUSH1 0x1 PUSH1 0xA0 SHL SUB NOT AND PUSH1 0x1 PUSH1 0x1 PUSH1 0xA0 SHL SUB SWAP3 SWAP1 SWAP3 AND SWAP2 SWAP1 SWAP2 OR SWAP1 SSTORE JUMP JUMPDEST PUSH2 0x446 PUSH2 0xBDB JUMP JUMPDEST PUSH2 0x450 PUSH1 0x0 PUSH2 0xC35 JUMP JUMPDEST JUMP JUMPDEST PUSH2 0x45A PUSH2 0xBDB JUMP JUMPDEST PUSH1 0x2 SLOAD DUP2 LT PUSH2 0x47B JUMPI PUSH1 0x40 MLOAD PUSH3 0x461BCD PUSH1 0xE5 SHL DUP2 MSTORE PUSH1 0x4 ADD PUSH2 0x248 SWAP1 PUSH2 0x10D5 JUMP JUMPDEST PUSH1 0x2 DUP1 SLOAD PUSH2 0x48B SWAP1 PUSH1 0x1 SWAP1 PUSH2 0x1112 JUMP JUMPDEST DUP2 SLOAD DUP2 LT PUSH2 0x49B JUMPI PUSH2 0x49B PUSH2 0x1129 JUMP JUMPDEST SWAP1 PUSH1 0x0 MSTORE PUSH1 0x20 PUSH1 0x0 KECCAK256 SWAP1 PUSH1 0x4 MUL ADD PUSH1 0x2 DUP3 DUP2 SLOAD DUP2 LT PUSH2 0x4BC JUMPI PUSH2 0x4BC PUSH2 0x1129 JUMP JUMPDEST PUSH1 0x0 SWAP2 DUP3 MSTORE PUSH1 0x20 SWAP1 SWAP2 KECCAK256 DUP3 SLOAD PUSH1 0x4 SWAP1 SWAP3 MUL ADD DUP1 SLOAD PUSH1 0x1 PUSH1 0x1 PUSH1 0xA0 SHL SUB NOT AND PUSH1 0x1 PUSH1 0x1 PUSH1 0xA0 SHL SUB SWAP1 SWAP3 AND SWAP2 SWAP1 SWAP2 OR DUP2 SSTORE PUSH1 0x1 DUP1 DUP4 ADD DUP1 SLOAD SWAP2 DUP4 ADD SWAP2 PUSH2 0x4FF SWAP1 PUSH2 0x113F JUMP JUMPDEST PUSH2 0x50A SWAP3 SWAP2 SWAP1 PUSH2 0xC85 JUMP JUMPDEST POP PUSH1 0x2 DUP3 DUP2 ADD SLOAD DUP3 DUP3 ADD SSTORE PUSH1 0x3 SWAP3 DUP4 ADD DUP1 SLOAD SWAP4 SWAP1 SWAP3 ADD DUP1 SLOAD PUSH1 0xFF SWAP5 DUP6 AND ISZERO ISZERO PUSH1 0xFF NOT DUP3 AND DUP2 OR DUP4 SSTORE SWAP4 SLOAD PUSH2 0x100 SWAP1 DUP2 SWAP1 DIV SWAP1 SWAP6 AND ISZERO ISZERO SWAP1 SWAP5 MUL PUSH2 0xFF00 NOT SWAP1 SWAP4 AND PUSH2 0xFFFF NOT SWAP1 SWAP5 AND SWAP4 SWAP1 SWAP4 OR SWAP2 SWAP1 SWAP2 OR SWAP1 SWAP2 SSTORE DUP1 SLOAD DUP1 PUSH2 0x56B JUMPI PUSH2 0x56B PUSH2 0x1195 JUMP JUMPDEST PUSH1 0x0 DUP3 DUP2 MSTORE PUSH1 0x20 DUP2 KECCAK256 PUSH1 0x4 PUSH1 0x0 NOT SWAP1 SWAP4 ADD SWAP3 DUP4 MUL ADD DUP1 SLOAD PUSH1 0x1 PUSH1 0x1 PUSH1 0xA0 SHL SUB NOT AND DUP2 SSTORE SWAP1 PUSH2 0x59C PUSH1 0x1 DUP4 ADD DUP3 PUSH2 0xD10 JUMP JUMPDEST POP PUSH1 0x0 PUSH1 0x2 DUP3 ADD SSTORE PUSH1 0x3 ADD DUP1 SLOAD PUSH2 0xFFFF NOT AND SWAP1 SSTORE SWAP1 SSTORE POP JUMP JUMPDEST PUSH2 0x5BD PUSH2 0xBDB JUMP JUMPDEST PUSH1 0x0 DUP3 DUP2 MSTORE PUSH1 0x3 PUSH1 0x20 MSTORE PUSH1 0x40 SWAP1 KECCAK256 DUP1 SLOAD DUP3 LT PUSH2 0x5EB JUMPI PUSH1 0x40 MLOAD PUSH3 0x461BCD PUSH1 0xE5 SHL DUP2 MSTORE PUSH1 0x4 ADD PUSH2 0x248 SWAP1 PUSH2 0x10D5 JUMP JUMPDEST DUP1 SLOAD DUP2 SWAP1 PUSH2 0x5FB SWAP1 PUSH1 0x1 SWAP1 PUSH2 0x1112 JUMP JUMPDEST DUP2 SLOAD DUP2 LT PUSH2 0x60B JUMPI PUSH2 0x60B PUSH2 0x1129 JUMP JUMPDEST SWAP1 PUSH1 0x0 MSTORE PUSH1 0x20 PUSH1 0x0 KECCAK256 ADD SLOAD DUP2 DUP4 DUP2 SLOAD DUP2 LT PUSH2 0x628 JUMPI PUSH2 0x628 PUSH2 0x1129 JUMP JUMPDEST SWAP1 PUSH1 0x0 MSTORE PUSH1 0x20 PUSH1 0x0 KECCAK256 ADD DUP2 SWAP1 SSTORE POP DUP1 DUP1 SLOAD DUP1 PUSH2 0x646 JUMPI PUSH2 0x646 PUSH2 0x1195 JUMP JUMPDEST PUSH1 0x1 SWAP1 SUB DUP2 DUP2 SWAP1 PUSH1 0x0 MSTORE PUSH1 0x20 PUSH1 0x0 KECCAK256 ADD PUSH1 0x0 SWAP1 SSTORE SWAP1 SSTORE POP POP POP JUMP JUMPDEST PUSH1 0x2 DUP2 DUP2 SLOAD DUP2 LT PUSH2 0x674 JUMPI PUSH2 0x674 PUSH2 0x1129 JUMP JUMPDEST PUSH1 0x0 SWAP2 DUP3 MSTORE PUSH1 0x20 SWAP1 SWAP2 KECCAK256 PUSH1 0x3 PUSH1 0x4 SWAP1 SWAP3 MUL ADD ADD SLOAD PUSH1 0xFF AND ISZERO PUSH2 0x6D8 JUMPI PUSH1 0x40 MLOAD PUSH3 0x461BCD PUSH1 0xE5 SHL DUP2 MSTORE PUSH1 0x20 PUSH1 0x4 DUP3 ADD MSTORE PUSH1 0x19 PUSH1 0x24 DUP3 ADD MSTORE PUSH32 0x546869732070726F706F73616C2069732072656A656374656400000000000000 PUSH1 0x44 DUP3 ADD MSTORE PUSH1 0x64 ADD PUSH2 0x248 JUMP JUMPDEST PUSH1 0x0 PUSH1 0x2 DUP3 DUP2 SLOAD DUP2 LT PUSH2 0x6ED JUMPI PUSH2 0x6ED PUSH2 0x1129 JUMP JUMPDEST PUSH1 0x0 SWAP2 DUP3 MSTORE PUSH1 0x20 DUP3 KECCAK256 PUSH1 0x1 SLOAD PUSH1 0x40 MLOAD PUSH4 0x2FEA7B81 PUSH1 0xE0 SHL DUP2 MSTORE CALLER PUSH1 0x4 DUP1 DUP4 ADD SWAP2 SWAP1 SWAP2 MSTORE SWAP4 SWAP1 SWAP4 MUL SWAP1 SWAP2 ADD SWAP4 POP PUSH1 0x1 PUSH1 0x1 PUSH1 0xA0 SHL SUB AND SWAP1 PUSH4 0x2FEA7B81 SWAP1 PUSH1 0x24 ADD PUSH1 0x0 PUSH1 0x40 MLOAD DUP1 DUP4 SUB DUP2 DUP7 GAS STATICCALL ISZERO DUP1 ISZERO PUSH2 0x749 JUMPI RETURNDATASIZE PUSH1 0x0 DUP1 RETURNDATACOPY RETURNDATASIZE PUSH1 0x0 REVERT JUMPDEST POP POP POP POP PUSH1 0x40 MLOAD RETURNDATASIZE PUSH1 0x0 DUP3 RETURNDATACOPY PUSH1 0x1F RETURNDATASIZE SWAP1 DUP2 ADD PUSH1 0x1F NOT AND DUP3 ADD PUSH1 0x40 MSTORE PUSH2 0x771 SWAP2 SWAP1 DUP2 ADD SWAP1 PUSH2 0x11F8 JUMP JUMPDEST DUP1 MLOAD PUSH1 0x20 DUP1 DUP4 ADD MLOAD PUSH1 0x40 MLOAD SWAP4 SWAP5 POP PUSH1 0x0 SWAP4 PUSH2 0x78D SWAP4 SWAP3 ADD PUSH2 0x129F JUMP JUMPDEST PUSH1 0x40 MLOAD PUSH1 0x20 DUP2 DUP4 SUB SUB DUP2 MSTORE SWAP1 PUSH1 0x40 MSTORE DUP1 MLOAD SWAP1 PUSH1 0x20 ADD KECCAK256 SWAP1 POP PUSH1 0x0 JUMPDEST PUSH1 0x2 DUP5 ADD SLOAD PUSH1 0x0 SWAP1 DUP2 MSTORE PUSH1 0x3 PUSH1 0x20 MSTORE PUSH1 0x40 SWAP1 KECCAK256 SLOAD DUP2 LT ISZERO PUSH2 0x82D JUMPI PUSH1 0x2 DUP5 ADD SLOAD PUSH1 0x0 SWAP1 DUP2 MSTORE PUSH1 0x3 PUSH1 0x20 MSTORE PUSH1 0x40 SWAP1 KECCAK256 DUP1 SLOAD DUP3 SWAP1 DUP2 LT PUSH2 0x7E8 JUMPI PUSH2 0x7E8 PUSH2 0x1129 JUMP JUMPDEST SWAP1 PUSH1 0x0 MSTORE PUSH1 0x20 PUSH1 0x0 KECCAK256 ADD SLOAD DUP3 EQ ISZERO PUSH2 0x81B JUMPI PUSH1 0x1 DUP5 PUSH1 0x2 ADD PUSH1 0x0 DUP3 DUP3 SLOAD PUSH2 0x80F SWAP2 SWAP1 PUSH2 0x12DB JUMP JUMPDEST SWAP1 SWAP2 SSTORE POP POP POP POP POP POP POP JUMP JUMPDEST DUP1 PUSH2 0x825 DUP2 PUSH2 0x117A JUMP JUMPDEST SWAP2 POP POP PUSH2 0x7A8 JUMP JUMPDEST POP PUSH1 0x40 MLOAD PUSH3 0x461BCD PUSH1 0xE5 SHL DUP2 MSTORE PUSH1 0x20 PUSH1 0x4 DUP3 ADD MSTORE PUSH1 0xD PUSH1 0x24 DUP3 ADD MSTORE PUSH13 0x2737903832B936B4B9B9B4B7B7 PUSH1 0x99 SHL PUSH1 0x44 DUP3 ADD MSTORE PUSH1 0x64 ADD PUSH2 0x248 JUMP JUMPDEST PUSH1 0x0 DUP2 DUP2 MSTORE PUSH1 0x3 PUSH1 0x20 SWAP1 DUP2 MSTORE PUSH1 0x40 SWAP2 DUP3 SWAP1 KECCAK256 DUP1 SLOAD DUP4 MLOAD DUP2 DUP5 MUL DUP2 ADD DUP5 ADD SWAP1 SWAP5 MSTORE DUP1 DUP5 MSTORE PUSH1 0x60 SWAP4 SWAP3 DUP4 ADD DUP3 DUP3 DUP1 ISZERO PUSH2 0x8BC JUMPI PUSH1 0x20 MUL DUP3 ADD SWAP2 SWAP1 PUSH1 0x0 MSTORE PUSH1 0x20 PUSH1 0x0 KECCAK256 SWAP1 JUMPDEST DUP2 SLOAD DUP2 MSTORE PUSH1 0x20 ADD SWAP1 PUSH1 0x1 ADD SWAP1 DUP1 DUP4 GT PUSH2 0x8A8 JUMPI JUMPDEST POP POP POP POP POP SWAP1 POP SWAP2 SWAP1 POP JUMP JUMPDEST PUSH1 0x0 PUSH1 0x2 DUP3 DUP2 SLOAD DUP2 LT PUSH2 0x8DD JUMPI PUSH2 0x8DD PUSH2 0x1129 JUMP JUMPDEST PUSH1 0x0 SWAP2 DUP3 MSTORE PUSH1 0x20 DUP3 KECCAK256 PUSH1 0x1 SLOAD PUSH1 0x40 MLOAD PUSH4 0x2FEA7B81 PUSH1 0xE0 SHL DUP2 MSTORE CALLER PUSH1 0x4 DUP1 DUP4 ADD SWAP2 SWAP1 SWAP2 MSTORE SWAP4 SWAP1 SWAP4 MUL SWAP1 SWAP2 ADD SWAP4 POP PUSH1 0x1 PUSH1 0x1 PUSH1 0xA0 SHL SUB AND SWAP1 PUSH4 0x2FEA7B81 SWAP1 PUSH1 0x24 ADD PUSH1 0x0 PUSH1 0x40 MLOAD DUP1 DUP4 SUB DUP2 DUP7 GAS STATICCALL ISZERO DUP1 ISZERO PUSH2 0x939 JUMPI RETURNDATASIZE PUSH1 0x0 DUP1 RETURNDATACOPY RETURNDATASIZE PUSH1 0x0 REVERT JUMPDEST POP POP POP POP PUSH1 0x40 MLOAD RETURNDATASIZE PUSH1 0x0 DUP3 RETURNDATACOPY PUSH1 0x1F RETURNDATASIZE SWAP1 DUP2 ADD PUSH1 0x1F NOT AND DUP3 ADD PUSH1 0x40 MSTORE PUSH2 0x961 SWAP2 SWAP1 DUP2 ADD SWAP1 PUSH2 0x11F8 JUMP JUMPDEST DUP1 MLOAD PUSH1 0x20 DUP1 DUP4 ADD MLOAD PUSH1 0x40 MLOAD SWAP4 SWAP5 POP PUSH1 0x0 SWAP4 PUSH2 0x97D SWAP4 SWAP3 ADD PUSH2 0x129F JUMP JUMPDEST PUSH1 0x40 MLOAD PUSH1 0x20 DUP2 DUP4 SUB SUB DUP2 MSTORE SWAP1 PUSH1 0x40 MSTORE DUP1 MLOAD SWAP1 PUSH1 0x20 ADD KECCAK256 SWAP1 POP PUSH1 0x0 JUMPDEST PUSH1 0x2 DUP5 ADD SLOAD PUSH1 0x0 SWAP1 DUP2 MSTORE PUSH1 0x3 PUSH1 0x20 MSTORE PUSH1 0x40 SWAP1 KECCAK256 SLOAD DUP2 LT ISZERO PUSH2 0x82D JUMPI PUSH1 0x2 DUP5 ADD SLOAD PUSH1 0x0 SWAP1 DUP2 MSTORE PUSH1 0x3 PUSH1 0x20 MSTORE PUSH1 0x40 SWAP1 KECCAK256 DUP1 SLOAD DUP3 SWAP1 DUP2 LT PUSH2 0x9D8 JUMPI PUSH2 0x9D8 PUSH2 0x1129 JUMP JUMPDEST SWAP1 PUSH1 0x0 MSTORE PUSH1 0x20 PUSH1 0x0 KECCAK256 ADD SLOAD DUP3 EQ ISZERO PUSH2 0x9FE JUMPI POP POP POP PUSH1 0x3 ADD DUP1 SLOAD PUSH1 0xFF NOT AND PUSH1 0x1 OR SWAP1 SSTORE POP JUMP JUMPDEST DUP1 PUSH2 0xA08 DUP2 PUSH2 0x117A JUMP JUMPDEST SWAP2 POP POP PUSH2 0x998 JUMP JUMPDEST PUSH2 0xA18 PUSH2 0xBDB JUMP JUMPDEST PUSH1 0x0 DUP3 DUP2 MSTORE PUSH1 0x3 PUSH1 0x20 SWAP1 DUP2 MSTORE PUSH1 0x40 SWAP2 DUP3 SWAP1 KECCAK256 SWAP2 MLOAD PUSH2 0xA38 SWAP2 DUP5 SWAP2 ADD PUSH2 0x12F3 JUMP JUMPDEST PUSH1 0x40 DUP1 MLOAD PUSH1 0x1F NOT DUP2 DUP5 SUB ADD DUP2 MSTORE SWAP2 SWAP1 MSTORE DUP1 MLOAD PUSH1 0x20 SWAP2 DUP3 ADD KECCAK256 DUP3 SLOAD PUSH1 0x1 DUP2 ADD DUP5 SSTORE PUSH1 0x0 SWAP4 DUP5 MSTORE SWAP2 SWAP1 SWAP3 KECCAK256 ADD SSTORE POP POP JUMP JUMPDEST PUSH1 0x40 DUP1 MLOAD PUSH1 0xA0 DUP2 ADD DUP3 MSTORE CALLER DUP2 MSTORE PUSH1 0x20 DUP1 DUP3 ADD DUP6 DUP2 MSTORE PUSH1 0x0 SWAP4 DUP4 ADD DUP5 SWAP1 MSTORE PUSH1 0x60 DUP4 ADD DUP5 SWAP1 MSTORE DUP5 ISZERO ISZERO PUSH1 0x80 DUP5 ADD MSTORE PUSH1 0x2 DUP1 SLOAD PUSH1 0x1 DUP2 ADD DUP3 SSTORE SWAP5 MSTORE DUP3 MLOAD PUSH32 0x405787FA12A823E0F2B7631CC41B3BA8828B3321CA811111FA75CD3AA3BB5ACE PUSH1 0x4 SWAP1 SWAP6 MUL SWAP5 DUP6 ADD DUP1 SLOAD PUSH1 0x1 PUSH1 0x1 PUSH1 0xA0 SHL SUB NOT AND PUSH1 0x1 PUSH1 0x1 PUSH1 0xA0 SHL SUB SWAP1 SWAP3 AND SWAP2 SWAP1 SWAP2 OR DUP2 SSTORE SWAP1 MLOAD DUP1 MLOAD SWAP4 SWAP5 SWAP2 SWAP4 PUSH2 0xB22 SWAP4 PUSH32 0x405787FA12A823E0F2B7631CC41B3BA8828B3321CA811111FA75CD3AA3BB5ACF SWAP1 SWAP4 ADD SWAP3 SWAP2 SWAP1 SWAP2 ADD SWAP1 PUSH2 0xD4A JUMP JUMPDEST POP PUSH1 0x40 DUP3 ADD MLOAD PUSH1 0x2 DUP3 ADD SSTORE PUSH1 0x60 DUP3 ADD MLOAD PUSH1 0x3 SWAP1 SWAP2 ADD DUP1 SLOAD PUSH1 0x80 SWAP1 SWAP4 ADD MLOAD ISZERO ISZERO PUSH2 0x100 MUL PUSH2 0xFF00 NOT SWAP3 ISZERO ISZERO SWAP3 SWAP1 SWAP3 AND PUSH2 0xFFFF NOT SWAP1 SWAP4 AND SWAP3 SWAP1 SWAP3 OR OR SWAP1 SSTORE POP POP JUMP JUMPDEST PUSH2 0xB6A PUSH2 0xBDB JUMP JUMPDEST PUSH1 0x1 PUSH1 0x1 PUSH1 0xA0 SHL SUB DUP2 AND PUSH2 0xBCF JUMPI PUSH1 0x40 MLOAD PUSH3 0x461BCD PUSH1 0xE5 SHL DUP2 MSTORE PUSH1 0x20 PUSH1 0x4 DUP3 ADD MSTORE PUSH1 0x26 PUSH1 0x24 DUP3 ADD MSTORE PUSH32 0x4F776E61626C653A206E6577206F776E657220697320746865207A65726F2061 PUSH1 0x44 DUP3 ADD MSTORE PUSH6 0x646472657373 PUSH1 0xD0 SHL PUSH1 0x64 DUP3 ADD MSTORE PUSH1 0x84 ADD PUSH2 0x248 JUMP JUMPDEST PUSH2 0xBD8 DUP2 PUSH2 0xC35 JUMP JUMPDEST POP JUMP JUMPDEST PUSH1 0x0 SLOAD PUSH1 0x1 PUSH1 0x1 PUSH1 0xA0 SHL SUB AND CALLER EQ PUSH2 0x450 JUMPI PUSH1 0x40 MLOAD PUSH3 0x461BCD PUSH1 0xE5 SHL DUP2 MSTORE PUSH1 0x20 PUSH1 0x4 DUP3 ADD DUP2 SWAP1 MSTORE PUSH1 0x24 DUP3 ADD MSTORE PUSH32 0x4F776E61626C653A2063616C6C6572206973206E6F7420746865206F776E6572 PUSH1 0x44 DUP3 ADD MSTORE PUSH1 0x64 ADD PUSH2 0x248 JUMP JUMPDEST PUSH1 0x0 DUP1 SLOAD PUSH1 0x1 PUSH1 0x1 PUSH1 0xA0 SHL SUB DUP4 DUP2 AND PUSH1 0x1 PUSH1 0x1 PUSH1 0xA0 SHL SUB NOT DUP4 AND DUP2 OR DUP5 SSTORE PUSH1 0x40 MLOAD SWAP2 SWAP1 SWAP3 AND SWAP3 DUP4 SWAP2 PUSH32 0x8BE0079C531659141344CD1FD0A4F28419497F9722A3DAAFE3B4186F6B6457E0 SWAP2 SWAP1 LOG3 POP POP JUMP JUMPDEST DUP3 DUP1 SLOAD PUSH2 0xC91 SWAP1 PUSH2 0x113F JUMP JUMPDEST SWAP1 PUSH1 0x0 MSTORE PUSH1 0x20 PUSH1 0x0 KECCAK256 SWAP1 PUSH1 0x1F ADD PUSH1 0x20 SWAP1 DIV DUP2 ADD SWAP3 DUP3 PUSH2 0xCB3 JUMPI PUSH1 0x0 DUP6 SSTORE PUSH2 0xD00 JUMP JUMPDEST DUP3 PUSH1 0x1F LT PUSH2 0xCC4 JUMPI DUP1 SLOAD DUP6 SSTORE PUSH2 0xD00 JUMP JUMPDEST DUP3 DUP1 ADD PUSH1 0x1 ADD DUP6 SSTORE DUP3 ISZERO PUSH2 0xD00 JUMPI PUSH1 0x0 MSTORE PUSH1 0x20 PUSH1 0x0 KECCAK256 SWAP2 PUSH1 0x1F ADD PUSH1 0x20 SWAP1 DIV DUP3 ADD JUMPDEST DUP3 DUP2 GT ISZERO PUSH2 0xD00 JUMPI DUP3 SLOAD DUP3 SSTORE SWAP2 PUSH1 0x1 ADD SWAP2 SWAP1 PUSH1 0x1 ADD SWAP1 PUSH2 0xCE5 JUMP JUMPDEST POP PUSH2 0xD0C SWAP3 SWAP2 POP PUSH2 0xDBE JUMP JUMPDEST POP SWAP1 JUMP JUMPDEST POP DUP1 SLOAD PUSH2 0xD1C SWAP1 PUSH2 0x113F JUMP JUMPDEST PUSH1 0x0 DUP3 SSTORE DUP1 PUSH1 0x1F LT PUSH2 0xD2C JUMPI POP POP JUMP JUMPDEST PUSH1 0x1F ADD PUSH1 0x20 SWAP1 DIV SWAP1 PUSH1 0x0 MSTORE PUSH1 0x20 PUSH1 0x0 KECCAK256 SWAP1 DUP2 ADD SWAP1 PUSH2 0xBD8 SWAP2 SWAP1 PUSH2 0xDBE JUMP JUMPDEST DUP3 DUP1 SLOAD PUSH2 0xD56 SWAP1 PUSH2 0x113F JUMP JUMPDEST SWAP1 PUSH1 0x0 MSTORE PUSH1 0x20 PUSH1 0x0 KECCAK256 SWAP1 PUSH1 0x1F ADD PUSH1 0x20 SWAP1 DIV DUP2 ADD SWAP3 DUP3 PUSH2 0xD78 JUMPI PUSH1 0x0 DUP6 SSTORE PUSH2 0xD00 JUMP JUMPDEST DUP3 PUSH1 0x1F LT PUSH2 0xD91 JUMPI DUP1 MLOAD PUSH1 0xFF NOT AND DUP4 DUP1 ADD OR DUP6 SSTORE PUSH2 0xD00 JUMP JUMPDEST DUP3 DUP1 ADD PUSH1 0x1 ADD DUP6 SSTORE DUP3 ISZERO PUSH2 0xD00 JUMPI SWAP2 DUP3 ADD JUMPDEST DUP3 DUP2 GT ISZERO PUSH2 0xD00 JUMPI DUP3 MLOAD DUP3 SSTORE SWAP2 PUSH1 0x20 ADD SWAP2 SWAP1 PUSH1 0x1 ADD SWAP1 PUSH2 0xDA3 JUMP JUMPDEST JUMPDEST DUP1 DUP3 GT ISZERO PUSH2 0xD0C JUMPI PUSH1 0x0 DUP2 SSTORE PUSH1 0x1 ADD PUSH2 0xDBF JUMP JUMPDEST PUSH1 0x0 DUP1 PUSH1 0x40 DUP4 DUP6 SUB SLT ISZERO PUSH2 0xDE6 JUMPI PUSH1 0x0 DUP1 REVERT JUMPDEST POP POP DUP1 CALLDATALOAD SWAP3 PUSH1 0x20 SWAP1 SWAP2 ADD CALLDATALOAD SWAP2 POP JUMP JUMPDEST PUSH1 0x0 JUMPDEST DUP4 DUP2 LT ISZERO PUSH2 0xE10 JUMPI DUP2 DUP2 ADD MLOAD DUP4 DUP3 ADD MSTORE PUSH1 0x20 ADD PUSH2 0xDF8 JUMP JUMPDEST DUP4 DUP2 GT ISZERO PUSH2 0xE1F JUMPI PUSH1 0x0 DUP5 DUP5 ADD MSTORE JUMPDEST POP POP POP POP JUMP JUMPDEST PUSH1 0x0 PUSH1 0x20 DUP1 DUP4 ADD DUP2 DUP5 MSTORE DUP1 DUP6 MLOAD DUP1 DUP4 MSTORE PUSH1 0x40 SWAP3 POP DUP3 DUP7 ADD SWAP2 POP DUP3 DUP2 PUSH1 0x5 SHL DUP8 ADD ADD DUP5 DUP9 ADD PUSH1 0x0 JUMPDEST DUP4 DUP2 LT ISZERO PUSH2 0xED7 JUMPI DUP9 DUP4 SUB PUSH1 0x3F NOT ADD DUP6 MSTORE DUP2 MLOAD DUP1 MLOAD PUSH1 0x1 PUSH1 0x1 PUSH1 0xA0 SHL SUB AND DUP5 MSTORE DUP8 DUP2 ADD MLOAD PUSH1 0xA0 DUP10 DUP7 ADD DUP2 SWAP1 MSTORE DUP2 MLOAD SWAP1 DUP7 ADD DUP2 SWAP1 MSTORE PUSH1 0xC0 SWAP2 SWAP1 PUSH2 0xE93 DUP2 DUP5 DUP10 ADD DUP5 DUP15 ADD PUSH2 0xDF5 JUMP JUMPDEST DUP10 DUP5 ADD MLOAD DUP8 DUP12 ADD MSTORE PUSH1 0x60 DUP1 DUP6 ADD MLOAD ISZERO ISZERO SWAP1 DUP9 ADD MSTORE PUSH1 0x80 SWAP4 DUP5 ADD MLOAD ISZERO ISZERO SWAP4 DUP8 ADD SWAP4 SWAP1 SWAP4 MSTORE POP SWAP6 DUP9 ADD SWAP6 PUSH1 0x1F SWAP1 SWAP2 ADD PUSH1 0x1F NOT AND SWAP1 SWAP4 ADD SWAP1 SWAP3 ADD SWAP2 SWAP1 DUP7 ADD SWAP1 PUSH1 0x1 ADD PUSH2 0xE4C JUMP JUMPDEST POP SWAP1 SWAP9 SWAP8 POP POP POP POP POP POP POP POP JUMP JUMPDEST PUSH1 0x0 PUSH1 0x20 DUP3 DUP5 SUB SLT ISZERO PUSH2 0xEF7 JUMPI PUSH1 0x0 DUP1 REVERT JUMPDEST DUP2 CALLDATALOAD PUSH1 0x1 PUSH1 0x1 PUSH1 0xA0 SHL SUB DUP2 AND DUP2 EQ PUSH2 0xF0E JUMPI PUSH1 0x0 DUP1 REVERT JUMPDEST SWAP4 SWAP3 POP POP POP JUMP JUMPDEST PUSH1 0x0 PUSH1 0x20 DUP3 DUP5 SUB SLT ISZERO PUSH2 0xF27 JUMPI PUSH1 0x0 DUP1 REVERT JUMPDEST POP CALLDATALOAD SWAP2 SWAP1 POP JUMP JUMPDEST PUSH1 0x20 DUP1 DUP3 MSTORE DUP3 MLOAD DUP3 DUP3 ADD DUP2 SWAP1 MSTORE PUSH1 0x0 SWAP2 SWAP1 DUP5 DUP3 ADD SWAP1 PUSH1 0x40 DUP6 ADD SWAP1 DUP5 JUMPDEST DUP2 DUP2 LT ISZERO PUSH2 0xF66 JUMPI DUP4 MLOAD DUP4 MSTORE SWAP3 DUP5 ADD SWAP3 SWAP2 DUP5 ADD SWAP2 PUSH1 0x1 ADD PUSH2 0xF4A JUMP JUMPDEST POP SWAP1 SWAP7 SWAP6 POP POP POP POP POP POP JUMP JUMPDEST PUSH4 0x4E487B71 PUSH1 0xE0 SHL PUSH1 0x0 MSTORE PUSH1 0x41 PUSH1 0x4 MSTORE PUSH1 0x24 PUSH1 0x0 REVERT JUMPDEST PUSH1 0x40 MLOAD PUSH1 0x1F DUP3 ADD PUSH1 0x1F NOT AND DUP2 ADD PUSH8 0xFFFFFFFFFFFFFFFF DUP2 GT DUP3 DUP3 LT OR ISZERO PUSH2 0xFB1 JUMPI PUSH2 0xFB1 PUSH2 0xF72 JUMP JUMPDEST PUSH1 0x40 MSTORE SWAP2 SWAP1 POP JUMP JUMPDEST PUSH1 0x0 PUSH8 0xFFFFFFFFFFFFFFFF DUP3 GT ISZERO PUSH2 0xFD3 JUMPI PUSH2 0xFD3 PUSH2 0xF72 JUMP JUMPDEST POP PUSH1 0x1F ADD PUSH1 0x1F NOT AND PUSH1 0x20 ADD SWAP1 JUMP JUMPDEST PUSH1 0x0 DUP3 PUSH1 0x1F DUP4 ADD SLT PUSH2 0xFF2 JUMPI PUSH1 0x0 DUP1 REVERT JUMPDEST DUP2 CALLDATALOAD PUSH2 0x1005 PUSH2 0x1000 DUP3 PUSH2 0xFB9 JUMP JUMPDEST PUSH2 0xF88 JUMP JUMPDEST DUP2 DUP2 MSTORE DUP5 PUSH1 0x20 DUP4 DUP7 ADD ADD GT ISZERO PUSH2 0x101A JUMPI PUSH1 0x0 DUP1 REVERT JUMPDEST DUP2 PUSH1 0x20 DUP6 ADD PUSH1 0x20 DUP4 ADD CALLDATACOPY PUSH1 0x0 SWAP2 DUP2 ADD PUSH1 0x20 ADD SWAP2 SWAP1 SWAP2 MSTORE SWAP4 SWAP3 POP POP POP JUMP JUMPDEST PUSH1 0x0 DUP1 PUSH1 0x40 DUP4 DUP6 SUB SLT ISZERO PUSH2 0x104A JUMPI PUSH1 0x0 DUP1 REVERT JUMPDEST DUP3 CALLDATALOAD SWAP2 POP PUSH1 0x20 DUP4 ADD CALLDATALOAD PUSH8 0xFFFFFFFFFFFFFFFF DUP2 GT ISZERO PUSH2 0x1068 JUMPI PUSH1 0x0 DUP1 REVERT JUMPDEST PUSH2 0x1074 DUP6 DUP3 DUP7 ADD PUSH2 0xFE1 JUMP JUMPDEST SWAP2 POP POP SWAP3 POP SWAP3 SWAP1 POP JUMP JUMPDEST PUSH1 0x0 DUP1 PUSH1 0x40 DUP4 DUP6 SUB SLT ISZERO PUSH2 0x1091 JUMPI PUSH1 0x0 DUP1 REVERT JUMPDEST DUP3 CALLDATALOAD PUSH8 0xFFFFFFFFFFFFFFFF DUP2 GT ISZERO PUSH2 0x10A8 JUMPI PUSH1 0x0 DUP1 REVERT JUMPDEST PUSH2 0x10B4 DUP6 DUP3 DUP7 ADD PUSH2 0xFE1 JUMP JUMPDEST SWAP3 POP POP PUSH1 0x20 DUP4 ADD CALLDATALOAD DUP1 ISZERO ISZERO DUP2 EQ PUSH2 0x10CA JUMPI PUSH1 0x0 DUP1 REVERT JUMPDEST DUP1 SWAP2 POP POP SWAP3 POP SWAP3 SWAP1 POP JUMP JUMPDEST PUSH1 0x20 DUP1 DUP3 MSTORE PUSH1 0xD SWAP1 DUP3 ADD MSTORE PUSH13 0x92DCECC2D8D2C84092DCC8CAF PUSH1 0x9B SHL PUSH1 0x40 DUP3 ADD MSTORE PUSH1 0x60 ADD SWAP1 JUMP JUMPDEST PUSH4 0x4E487B71 PUSH1 0xE0 SHL PUSH1 0x0 MSTORE PUSH1 0x11 PUSH1 0x4 MSTORE PUSH1 0x24 PUSH1 0x0 REVERT JUMPDEST PUSH1 0x0 DUP3 DUP3 LT ISZERO PUSH2 0x1124 JUMPI PUSH2 0x1124 PUSH2 0x10FC JUMP JUMPDEST POP SUB SWAP1 JUMP JUMPDEST PUSH4 0x4E487B71 PUSH1 0xE0 SHL PUSH1 0x0 MSTORE PUSH1 0x32 PUSH1 0x4 MSTORE PUSH1 0x24 PUSH1 0x0 REVERT JUMPDEST PUSH1 0x1 DUP2 DUP2 SHR SWAP1 DUP3 AND DUP1 PUSH2 0x1153 JUMPI PUSH1 0x7F DUP3 AND SWAP2 POP JUMPDEST PUSH1 0x20 DUP3 LT DUP2 EQ ISZERO PUSH2 0x1174 JUMPI PUSH4 0x4E487B71 PUSH1 0xE0 SHL PUSH1 0x0 MSTORE PUSH1 0x22 PUSH1 0x4 MSTORE PUSH1 0x24 PUSH1 0x0 REVERT JUMPDEST POP SWAP2 SWAP1 POP JUMP JUMPDEST PUSH1 0x0 PUSH1 0x0 NOT DUP3 EQ ISZERO PUSH2 0x118E JUMPI PUSH2 0x118E PUSH2 0x10FC JUMP JUMPDEST POP PUSH1 0x1 ADD SWAP1 JUMP JUMPDEST PUSH4 0x4E487B71 PUSH1 0xE0 SHL PUSH1 0x0 MSTORE PUSH1 0x31 PUSH1 0x4 MSTORE PUSH1 0x24 PUSH1 0x0 REVERT JUMPDEST PUSH1 0x0 DUP3 PUSH1 0x1F DUP4 ADD SLT PUSH2 0x11BC JUMPI PUSH1 0x0 DUP1 REVERT JUMPDEST DUP2 MLOAD PUSH2 0x11CA PUSH2 0x1000 DUP3 PUSH2 0xFB9 JUMP JUMPDEST DUP2 DUP2 MSTORE DUP5 PUSH1 0x20 DUP4 DUP7 ADD ADD GT ISZERO PUSH2 0x11DF JUMPI PUSH1 0x0 DUP1 REVERT JUMPDEST PUSH2 0x11F0 DUP3 PUSH1 0x20 DUP4 ADD PUSH1 0x20 DUP8 ADD PUSH2 0xDF5 JUMP JUMPDEST SWAP5 SWAP4 POP POP POP POP JUMP JUMPDEST PUSH1 0x0 PUSH1 0x20 DUP3 DUP5 SUB SLT ISZERO PUSH2 0x120A JUMPI PUSH1 0x0 DUP1 REVERT JUMPDEST DUP2 MLOAD PUSH8 0xFFFFFFFFFFFFFFFF DUP1 DUP3 GT ISZERO PUSH2 0x1222 JUMPI PUSH1 0x0 DUP1 REVERT JUMPDEST SWAP1 DUP4 ADD SWAP1 PUSH1 0x40 DUP3 DUP7 SUB SLT ISZERO PUSH2 0x1236 JUMPI PUSH1 0x0 DUP1 REVERT JUMPDEST PUSH1 0x40 MLOAD PUSH1 0x40 DUP2 ADD DUP2 DUP2 LT DUP4 DUP3 GT OR ISZERO PUSH2 0x1251 JUMPI PUSH2 0x1251 PUSH2 0xF72 JUMP JUMPDEST PUSH1 0x40 MSTORE DUP3 MLOAD DUP3 DUP2 GT ISZERO PUSH2 0x1263 JUMPI PUSH1 0x0 DUP1 REVERT JUMPDEST PUSH2 0x126F DUP8 DUP3 DUP7 ADD PUSH2 0x11AB JUMP JUMPDEST DUP3 MSTORE POP PUSH1 0x20 DUP4 ADD MLOAD DUP3 DUP2 GT ISZERO PUSH2 0x1284 JUMPI PUSH1 0x0 DUP1 REVERT JUMPDEST PUSH2 0x1290 DUP8 DUP3 DUP7 ADD PUSH2 0x11AB JUMP JUMPDEST PUSH1 0x20 DUP4 ADD MSTORE POP SWAP6 SWAP5 POP POP POP POP POP JUMP JUMPDEST PUSH1 0x0 DUP4 MLOAD PUSH2 0x12B1 DUP2 DUP5 PUSH1 0x20 DUP9 ADD PUSH2 0xDF5 JUMP JUMPDEST PUSH1 0x5F PUSH1 0xF8 SHL SWAP1 DUP4 ADD SWAP1 DUP2 MSTORE DUP4 MLOAD PUSH2 0x12CF DUP2 PUSH1 0x1 DUP5 ADD PUSH1 0x20 DUP9 ADD PUSH2 0xDF5 JUMP JUMPDEST ADD PUSH1 0x1 ADD SWAP5 SWAP4 POP POP POP POP JUMP JUMPDEST PUSH1 0x0 DUP3 NOT DUP3 GT ISZERO PUSH2 0x12EE JUMPI PUSH2 0x12EE PUSH2 0x10FC JUMP JUMPDEST POP ADD SWAP1 JUMP JUMPDEST PUSH1 0x0 DUP3 MLOAD PUSH2 0x1305 DUP2 DUP5 PUSH1 0x20 DUP8 ADD PUSH2 0xDF5 JUMP JUMPDEST SWAP2 SWAP1 SWAP2 ADD SWAP3 SWAP2 POP POP JUMP INVALID LOG2 PUSH5 0x6970667358 0x22 SLT KECCAK256 0x24 0xE7 SWAP9 0xCE GASLIMIT COINBASE 0xA7 PUSH32 0xF093FFB639971B1997DB22D9C4DFFA5820FB2EFD7DBB71EB64736F6C63430008 SIGNEXTEND STOP CALLER "},"methodIdentifiers":{"addPermission(uint256,string)":"c41f9b0c","approveProposal(uint256)":"98951b56","createProposal(string,bool)":"ee593070","deletePermission(uint256,uint256)":"971afbf2","deleteProposal(uint256)":"8259d553","getAllProposal(uint256,uint256)":"262feb9e","getPermissionsOfLevel(uint256)":"a9aba818","getProposalCount()":"c08cc02d","owner()":"8da5cb5b","rejectProposal(uint256)":"bc28d878","renounceOwnership()":"715018a6","roleNFT()":"c597949c","setRoleNFT(address)":"63c7da47","transferOwnership(address)":"f2fde38b"}}}}}