{
  "_format": "hh-sol-artifact-1",
  "contractName": "DAO",
  "sourceName": "contracts/Proposal.sol",
  "abi": [
    {
      "inputs": [
        {
          "internalType": "address",
          "name": "_roleNFT",
          "type": "address"
        }
      ],
      "stateMutability": "nonpayable",
      "type": "constructor"
    },
    {
      "anonymous": false,
      "inputs": [
        {
          "indexed": true,
          "internalType": "address",
          "name": "previousOwner",
          "type": "address"
        },
        {
          "indexed": true,
          "internalType": "address",
          "name": "newOwner",
          "type": "address"
        }
      ],
      "name": "OwnershipTransferred",
      "type": "event"
    },
    {
      "inputs": [
        {
          "internalType": "uint256",
          "name": "_level",
          "type": "uint256"
        },
        {
          "internalType": "string",
          "name": "_role",
          "type": "string"
        }
      ],
      "name": "addPermission",
      "outputs": [],
      "stateMutability": "nonpayable",
      "type": "function"
    },
    {
      "inputs": [
        {
          "internalType": "uint256",
          "name": "index",
          "type": "uint256"
        }
      ],
      "name": "approveProposal",
      "outputs": [],
      "stateMutability": "nonpayable",
      "type": "function"
    },
    {
      "inputs": [
        {
          "internalType": "string",
          "name": "_contentURI",
          "type": "string"
        },
        {
          "internalType": "bool",
          "name": "_isPublic",
          "type": "bool"
        }
      ],
      "name": "createProposal",
      "outputs": [],
      "stateMutability": "nonpayable",
      "type": "function"
    },
    {
      "inputs": [
        {
          "internalType": "uint256",
          "name": "_level",
          "type": "uint256"
        },
        {
          "internalType": "uint256",
          "name": "index",
          "type": "uint256"
        }
      ],
      "name": "deletePermission",
      "outputs": [],
      "stateMutability": "nonpayable",
      "type": "function"
    },
    {
      "inputs": [
        {
          "internalType": "uint256",
          "name": "index",
          "type": "uint256"
        }
      ],
      "name": "deleteProposal",
      "outputs": [],
      "stateMutability": "nonpayable",
      "type": "function"
    },
    {
      "inputs": [
        {
          "internalType": "uint256",
          "name": "start",
          "type": "uint256"
        },
        {
          "internalType": "uint256",
          "name": "end",
          "type": "uint256"
        }
      ],
      "name": "getAllProposal",
      "outputs": [
        {
          "components": [
            {
              "internalType": "address",
              "name": "creator",
              "type": "address"
            },
            {
              "internalType": "string",
              "name": "contentURL",
              "type": "string"
            },
            {
              "internalType": "uint256",
              "name": "level",
              "type": "uint256"
            },
            {
              "internalType": "bool",
              "name": "isRejected",
              "type": "bool"
            },
            {
              "internalType": "bool",
              "name": "isPublic",
              "type": "bool"
            }
          ],
          "internalType": "struct DAO.Proposal[]",
          "name": "",
          "type": "tuple[]"
        }
      ],
      "stateMutability": "view",
      "type": "function"
    },
    {
      "inputs": [
        {
          "internalType": "uint256",
          "name": "_level",
          "type": "uint256"
        }
      ],
      "name": "getPermissionsOfLevel",
      "outputs": [
        {
          "internalType": "bytes32[]",
          "name": "",
          "type": "bytes32[]"
        }
      ],
      "stateMutability": "view",
      "type": "function"
    },
    {
      "inputs": [],
      "name": "getProposalCount",
      "outputs": [
        {
          "internalType": "uint256",
          "name": "",
          "type": "uint256"
        }
      ],
      "stateMutability": "view",
      "type": "function"
    },
    {
      "inputs": [],
      "name": "owner",
      "outputs": [
        {
          "internalType": "address",
          "name": "",
          "type": "address"
        }
      ],
      "stateMutability": "view",
      "type": "function"
    },
    {
      "inputs": [
        {
          "internalType": "uint256",
          "name": "index",
          "type": "uint256"
        }
      ],
      "name": "rejectProposal",
      "outputs": [],
      "stateMutability": "nonpayable",
      "type": "function"
    },
    {
      "inputs": [],
      "name": "renounceOwnership",
      "outputs": [],
      "stateMutability": "nonpayable",
      "type": "function"
    },
    {
      "inputs": [],
      "name": "roleNFT",
      "outputs": [
        {
          "internalType": "contract IRoleNFT",
          "name": "",
          "type": "address"
        }
      ],
      "stateMutability": "view",
      "type": "function"
    },
    {
      "inputs": [
        {
          "internalType": "address",
          "name": "_roleNFT",
          "type": "address"
        }
      ],
      "name": "setRoleNFT",
      "outputs": [],
      "stateMutability": "nonpayable",
      "type": "function"
    },
    {
      "inputs": [
        {
          "internalType": "address",
          "name": "newOwner",
          "type": "address"
        }
      ],
      "name": "transferOwnership",
      "outputs": [],
      "stateMutability": "nonpayable",
      "type": "function"
    }
  ],
  "bytecode": "0x608060405234801561001057600080fd5b506040516115f43803806115f483398101604081905261002f91610270565b61003833610220565b600180546001600160a01b0319166001600160a01b039290921691909117815560036020527f3617319a054d772f909f7c479a2cebe5066e836a939412e32403c99029b92eff80548083019091557fe1726417091f8691ab536ba2d7df002e7023daa1d7caaebcc90d05f6ad11d42c7fcfb339bd1c51c488f6134f4ac63d1594afad827b3401c3fc51ed1da74a8ca14e909101557fa15bc60c955c405d20d9149c709e2460f1c2d9a497496a7f46004d1772c3054c80548083019091557fea232b257d795db5a71c4618af40da9c05945509ab953406f063503dd1e6a1c97f2c644dcf44e265ba93879b2da89e1b16ab48fc5eb8e31bc16b0612d6da8463f1909101557fc3a24b0501bd2c13a7e57f2db4369ec4c223447539fc0724a9d55ac4a06ebd4d80548083019091557fb5830fe8e17f3f12f738592dbd6cebe67a46fbd8fe9ee2c1edb036cd16194bd27f19b5847ec9d8983e32da86b2c2bedc7b0bcabd1d214557fda78706fe7ba568ce909101557fcbc4e5fb02c3d1de23a9f1e014b4d2ee5aeaea9505df5e855c9210bf472495af805491820181556000527fdc0d7a095c4e917ecbeb7deda7c942ff9744013d419e37549215a413915e421d7ffa8d260207fe657f2346775cc7df9e07ba0a08e64ccd28972b30bb03ba9b295b909101556102a0565b600080546001600160a01b038381166001600160a01b0319831681178455604051919092169283917f8be0079c531659141344cd1fd0a4f28419497f9722a3daafe3b4186f6b6457e09190a35050565b60006020828403121561028257600080fd5b81516001600160a01b038116811461029957600080fd5b9392505050565b611345806102af6000396000f3fe608060405234801561001057600080fd5b50600436106100ea5760003560e01c8063a9aba8181161008c578063c41f9b0c11610066578063c41f9b0c146101d7578063c597949c146101ea578063ee593070146101fd578063f2fde38b1461021057600080fd5b8063a9aba81814610193578063bc28d878146101b3578063c08cc02d146101c657600080fd5b80638259d553116100c85780638259d553146101355780638da5cb5b14610148578063971afbf21461016d57806398951b561461018057600080fd5b8063262feb9e146100ef57806363c7da4714610118578063715018a61461012d575b600080fd5b6101026100fd366004610dd3565b610223565b60405161010f9190610e25565b60405180910390f35b61012b610126366004610ee5565b610414565b005b61012b61043e565b61012b610143366004610f15565b610452565b6000546001600160a01b03165b6040516001600160a01b03909116815260200161010f565b61012b61017b366004610dd3565b6105b5565b61012b61018e366004610f15565b610661565b6101a66101a1366004610f15565b610866565b60405161010f9190610f2e565b61012b6101c1366004610f15565b6108c8565b60025460405190815260200161010f565b61012b6101e5366004611037565b610a10565b600154610155906001600160a01b031681565b61012b61020b36600461107e565b610a67565b61012b61021e366004610ee5565b610b62565b6002546060908211156102515760405162461bcd60e51b8152600401610248906110d5565b60405180910390fd5b600061025d8484611112565b67ffffffffffffffff81111561027557610275610f72565b6040519080825280602002602001820160405280156102ce57816020015b6040805160a0810182526000808252606060208084018290529383018290528201819052608082015282526000199092019101816102935790505b509050835b8381101561040c57600281815481106102ee576102ee611129565b60009182526020918290206040805160a0810190915260049092020180546001600160a01b03168252600181018054929391929184019161032e9061113f565b80601f016020809104026020016040519081016040528092919081815260200182805461035a9061113f565b80156103a75780601f1061037c576101008083540402835291602001916103a7565b820191906000526020600020905b81548152906001019060200180831161038a57829003601f168201915b50505091835250506002820154602082015260039091015460ff8082161515604084015261010090910416151560609091015282518390839081106103ee576103ee611129565b602002602001018190525080806104049061117a565b9150506102d3565b509392505050565b61041c610bdb565b600180546001600160a01b0319166001600160a01b0392909216919091179055565b610446610bdb565b6104506000610c35565b565b61045a610bdb565b600254811061047b5760405162461bcd60e51b8152600401610248906110d5565b6002805461048b90600190611112565b8154811061049b5761049b611129565b9060005260206000209060040201600282815481106104bc576104bc611129565b60009182526020909120825460049092020180546001600160a01b0319166001600160a01b0390921691909117815560018083018054918301916104ff9061113f565b61050a929190610c85565b50600282810154828201556003928301805493909201805460ff948516151560ff19821681178355935461010090819004909516151590940261ff001990931661ffff19909416939093179190911790915580548061056b5761056b611195565b60008281526020812060046000199093019283020180546001600160a01b03191681559061059c6001830182610d10565b5060006002820155600301805461ffff19169055905550565b6105bd610bdb565b6000828152600360205260409020805482106105eb5760405162461bcd60e51b8152600401610248906110d5565b805481906105fb90600190611112565b8154811061060b5761060b611129565b906000526020600020015481838154811061062857610628611129565b90600052602060002001819055508080548061064657610646611195565b60019003818190600052602060002001600090559055505050565b6002818154811061067457610674611129565b600091825260209091206003600490920201015460ff16156106d85760405162461bcd60e51b815260206004820152601960248201527f546869732070726f706f73616c2069732072656a6563746564000000000000006044820152606401610248565b6000600282815481106106ed576106ed611129565b600091825260208220600154604051632fea7b8160e01b8152336004808301919091529390930290910193506001600160a01b031690632fea7b8190602401600060405180830381865afa158015610749573d6000803e3d6000fd5b505050506040513d6000823e601f3d908101601f1916820160405261077191908101906111f8565b805160208083015160405193945060009361078d93920161129f565b60405160208183030381529060405280519060200120905060005b600284015460009081526003602052604090205481101561082d57600284015460009081526003602052604090208054829081106107e8576107e8611129565b906000526020600020015482141561081b57600184600201600082825461080f91906112db565b90915550505050505050565b806108258161117a565b9150506107a8565b5060405162461bcd60e51b815260206004820152600d60248201526c2737903832b936b4b9b9b4b7b760991b6044820152606401610248565b6000818152600360209081526040918290208054835181840281018401909452808452606093928301828280156108bc57602002820191906000526020600020905b8154815260200190600101908083116108a8575b50505050509050919050565b6000600282815481106108dd576108dd611129565b600091825260208220600154604051632fea7b8160e01b8152336004808301919091529390930290910193506001600160a01b031690632fea7b8190602401600060405180830381865afa158015610939573d6000803e3d6000fd5b505050506040513d6000823e601f3d908101601f1916820160405261096191908101906111f8565b805160208083015160405193945060009361097d93920161129f565b60405160208183030381529060405280519060200120905060005b600284015460009081526003602052604090205481101561082d57600284015460009081526003602052604090208054829081106109d8576109d8611129565b90600052602060002001548214156109fe57505050600301805460ff1916600117905550565b80610a088161117a565b915050610998565b610a18610bdb565b6000828152600360209081526040918290209151610a38918491016112f3565b60408051601f198184030181529190528051602091820120825460018101845560009384529190922001555050565b6040805160a0810182523381526020808201858152600093830184905260608301849052841515608084015260028054600181018255945282517f405787fa12a823e0f2b7631cc41b3ba8828b3321ca811111fa75cd3aa3bb5ace600490950294850180546001600160a01b0319166001600160a01b039092169190911781559051805193949193610b22937f405787fa12a823e0f2b7631cc41b3ba8828b3321ca811111fa75cd3aa3bb5acf909301929190910190610d4a565b506040820151600282015560608201516003909101805460809093015115156101000261ff00199215159290921661ffff19909316929092171790555050565b610b6a610bdb565b6001600160a01b038116610bcf5760405162461bcd60e51b815260206004820152602660248201527f4f776e61626c653a206e6577206f776e657220697320746865207a65726f206160448201526564647265737360d01b6064820152608401610248565b610bd881610c35565b50565b6000546001600160a01b031633146104505760405162461bcd60e51b815260206004820181905260248201527f4f776e61626c653a2063616c6c6572206973206e6f7420746865206f776e65726044820152606401610248565b600080546001600160a01b038381166001600160a01b0319831681178455604051919092169283917f8be0079c531659141344cd1fd0a4f28419497f9722a3daafe3b4186f6b6457e09190a35050565b828054610c919061113f565b90600052602060002090601f016020900481019282610cb35760008555610d00565b82601f10610cc45780548555610d00565b82800160010185558215610d0057600052602060002091601f016020900482015b82811115610d00578254825591600101919060010190610ce5565b50610d0c929150610dbe565b5090565b508054610d1c9061113f565b6000825580601f10610d2c575050565b601f016020900490600052602060002090810190610bd89190610dbe565b828054610d569061113f565b90600052602060002090601f016020900481019282610d785760008555610d00565b82601f10610d9157805160ff1916838001178555610d00565b82800160010185558215610d00579182015b82811115610d00578251825591602001919060010190610da3565b5b80821115610d0c5760008155600101610dbf565b60008060408385031215610de657600080fd5b50508035926020909101359150565b60005b83811015610e10578181015183820152602001610df8565b83811115610e1f576000848401525b50505050565b60006020808301818452808551808352604092508286019150828160051b87010184880160005b83811015610ed757888303603f19018552815180516001600160a01b031684528781015160a0898601819052815190860181905260c09190610e9381848901848e01610df5565b89840151878b01526060808501511515908801526080938401511515938701939093525095880195601f909101601f19169093019092019190860190600101610e4c565b509098975050505050505050565b600060208284031215610ef757600080fd5b81356001600160a01b0381168114610f0e57600080fd5b9392505050565b600060208284031215610f2757600080fd5b5035919050565b6020808252825182820181905260009190848201906040850190845b81811015610f6657835183529284019291840191600101610f4a565b50909695505050505050565b634e487b7160e01b600052604160045260246000fd5b604051601f8201601f1916810167ffffffffffffffff81118282101715610fb157610fb1610f72565b604052919050565b600067ffffffffffffffff821115610fd357610fd3610f72565b50601f01601f191660200190565b600082601f830112610ff257600080fd5b813561100561100082610fb9565b610f88565b81815284602083860101111561101a57600080fd5b816020850160208301376000918101602001919091529392505050565b6000806040838503121561104a57600080fd5b82359150602083013567ffffffffffffffff81111561106857600080fd5b61107485828601610fe1565b9150509250929050565b6000806040838503121561109157600080fd5b823567ffffffffffffffff8111156110a857600080fd5b6110b485828601610fe1565b925050602083013580151581146110ca57600080fd5b809150509250929050565b6020808252600d908201526c092dcecc2d8d2c84092dcc8caf609b1b604082015260600190565b634e487b7160e01b600052601160045260246000fd5b600082821015611124576111246110fc565b500390565b634e487b7160e01b600052603260045260246000fd5b600181811c9082168061115357607f821691505b6020821081141561117457634e487b7160e01b600052602260045260246000fd5b50919050565b600060001982141561118e5761118e6110fc565b5060010190565b634e487b7160e01b600052603160045260246000fd5b600082601f8301126111bc57600080fd5b81516111ca61100082610fb9565b8181528460208386010111156111df57600080fd5b6111f0826020830160208701610df5565b949350505050565b60006020828403121561120a57600080fd5b815167ffffffffffffffff8082111561122257600080fd5b908301906040828603121561123657600080fd5b60405160408101818110838211171561125157611251610f72565b60405282518281111561126357600080fd5b61126f878286016111ab565b82525060208301518281111561128457600080fd5b611290878286016111ab565b60208301525095945050505050565b600083516112b1818460208801610df5565b605f60f81b90830190815283516112cf816001840160208801610df5565b01600101949350505050565b600082198211156112ee576112ee6110fc565b500190565b60008251611305818460208701610df5565b919091019291505056fea264697066735822122024e798ce4541a77ff093ffb639971b1997db22d9c4dffa5820fb2efd7dbb71eb64736f6c634300080b0033",
  "linkReferences": {},
  "deployedLinkReferences": {}
}